{
  "_format": "hh-sol-artifact-1",
  "contractName": "OpinionXpress",
  "sourceName": "contracts/OpinionXpress.sol",
  "abi": [
    {
      "inputs": [
        {
          "internalType": "address",
          "name": "semaphoreAddress",
          "type": "address"
        }
      ],
      "stateMutability": "nonpayable",
      "type": "constructor"
    },
    {
      "anonymous": false,
      "inputs": [
        {
          "indexed": false,
          "internalType": "address",
          "name": "newAdmin",
          "type": "address"
        }
      ],
      "name": "GroupAdminChanged",
      "type": "event"
    },
    {
      "anonymous": false,
      "inputs": [
        {
          "indexed": false,
          "internalType": "uint256",
          "name": "groupId",
          "type": "uint256"
        }
      ],
      "name": "GroupCreated",
      "type": "event"
    },
    {
      "anonymous": false,
      "inputs": [
        {
          "indexed": true,
          "internalType": "address",
          "name": "previousOwner",
          "type": "address"
        },
        {
          "indexed": true,
          "internalType": "address",
          "name": "newOwner",
          "type": "address"
        }
      ],
      "name": "OwnershipTransferred",
      "type": "event"
    },
    {
      "anonymous": false,
      "inputs": [
        {
          "indexed": false,
          "internalType": "address",
          "name": "newAdmin",
          "type": "address"
        }
      ],
      "name": "VoteAdminChanged",
      "type": "event"
    },
    {
      "inputs": [
        {
          "internalType": "uint256",
          "name": "groupId",
          "type": "uint256"
        },
        {
          "internalType": "uint256",
          "name": "identityCommitment",
          "type": "uint256"
        }
      ],
      "name": "addMember",
      "outputs": [],
      "stateMutability": "nonpayable",
      "type": "function"
    },
    {
      "inputs": [
        {
          "internalType": "address",
          "name": "newAdmin",
          "type": "address"
        }
      ],
      "name": "changeGroupAdmin",
      "outputs": [],
      "stateMutability": "nonpayable",
      "type": "function"
    },
    {
      "inputs": [
        {
          "internalType": "address",
          "name": "newAdmin",
          "type": "address"
        }
      ],
      "name": "changeVoteAdmin",
      "outputs": [],
      "stateMutability": "nonpayable",
      "type": "function"
    },
    {
      "inputs": [
        {
          "internalType": "uint256",
          "name": "groupId",
          "type": "uint256"
        },
        {
          "internalType": "uint256",
          "name": "depth",
          "type": "uint256"
        }
      ],
      "name": "createGroup",
      "outputs": [],
      "stateMutability": "nonpayable",
      "type": "function"
    },
    {
      "inputs": [],
      "name": "groupAdmin",
      "outputs": [
        {
          "internalType": "address",
          "name": "",
          "type": "address"
        }
      ],
      "stateMutability": "view",
      "type": "function"
    },
    {
      "inputs": [
        {
          "internalType": "uint256",
          "name": "",
          "type": "uint256"
        }
      ],
      "name": "groups",
      "outputs": [
        {
          "internalType": "bool",
          "name": "isActive",
          "type": "bool"
        }
      ],
      "stateMutability": "view",
      "type": "function"
    },
    {
      "inputs": [],
      "name": "owner",
      "outputs": [
        {
          "internalType": "address",
          "name": "",
          "type": "address"
        }
      ],
      "stateMutability": "view",
      "type": "function"
    },
    {
      "inputs": [],
      "name": "renounceOwnership",
      "outputs": [],
      "stateMutability": "nonpayable",
      "type": "function"
    },
    {
      "inputs": [],
      "name": "semaphore",
      "outputs": [
        {
          "internalType": "contract ISemaphore",
          "name": "",
          "type": "address"
        }
      ],
      "stateMutability": "view",
      "type": "function"
    },
    {
      "inputs": [
        {
          "internalType": "address",
          "name": "newOwner",
          "type": "address"
        }
      ],
      "name": "transferOwnership",
      "outputs": [],
      "stateMutability": "nonpayable",
      "type": "function"
    },
    {
      "inputs": [
        {
          "internalType": "uint256",
          "name": "groupId",
          "type": "uint256"
        },
        {
          "internalType": "uint256",
          "name": "identityCommitment",
          "type": "uint256"
        },
        {
          "internalType": "uint256",
          "name": "newIdentityCommitment",
          "type": "uint256"
        },
        {
          "internalType": "uint256[]",
          "name": "proofSiblings",
          "type": "uint256[]"
        },
        {
          "internalType": "uint8[]",
          "name": "proofPathIndices",
          "type": "uint8[]"
        }
      ],
      "name": "updateMember",
      "outputs": [],
      "stateMutability": "nonpayable",
      "type": "function"
    },
    {
      "inputs": [],
      "name": "voteAdmin",
      "outputs": [
        {
          "internalType": "address",
          "name": "",
          "type": "address"
        }
      ],
      "stateMutability": "view",
      "type": "function"
    }
  ],
  "bytecode": "0x60806040523480156200001157600080fd5b50604051620014a2380380620014a2833981810160405281019062000037919062000204565b620000576200004b6200012160201b60201c565b6200012960201b60201c565b80600160006101000a81548173ffffffffffffffffffffffffffffffffffffffff021916908373ffffffffffffffffffffffffffffffffffffffff16021790555033600360006101000a81548173ffffffffffffffffffffffffffffffffffffffff021916908373ffffffffffffffffffffffffffffffffffffffff16021790555033600460006101000a81548173ffffffffffffffffffffffffffffffffffffffff021916908373ffffffffffffffffffffffffffffffffffffffff160217905550506200027e565b600033905090565b60008060009054906101000a900473ffffffffffffffffffffffffffffffffffffffff169050816000806101000a81548173ffffffffffffffffffffffffffffffffffffffff021916908373ffffffffffffffffffffffffffffffffffffffff1602179055508173ffffffffffffffffffffffffffffffffffffffff168173ffffffffffffffffffffffffffffffffffffffff167f8be0079c531659141344cd1fd0a4f28419497f9722a3daafe3b4186f6b6457e060405160405180910390a35050565b600081519050620001fe8162000264565b92915050565b6000602082840312156200021757600080fd5b60006200022784828501620001ed565b91505092915050565b60006200023d8262000244565b9050919050565b600073ffffffffffffffffffffffffffffffffffffffff82169050919050565b6200026f8162000230565b81146200027b57600080fd5b50565b611214806200028e6000396000f3fe608060405234801561001057600080fd5b50600436106100b45760003560e01c80638ca1b18f116100715780638ca1b18f146101555780638da5cb5b1461017157806396324bd41461018f578063980cb3ac146101bf578063ec45622a146101db578063f2fde38b146101f7576100b4565b80631783efc3146100b95780632d2c6332146100d557806340e39531146100f3578063715018a6146101115780637b5d25341461011b578063882fc55714610139575b600080fd5b6100d360048036038101906100ce9190610b0a565b610213565b005b6100dd610399565b6040516100ea9190610dcc565b60405180910390f35b6100fb6103bf565b6040516101089190610dcc565b60405180910390f35b6101196103e5565b005b6101236103f9565b6040516101309190610e02565b60405180910390f35b610153600480360381019061014e9190610ab8565b61041f565b005b61016f600480360381019061016a9190610ab8565b6104a2565b005b610179610525565b6040516101869190610dcc565b60405180910390f35b6101a960048036038101906101a49190610ae1565b61054e565b6040516101b69190610de7565b60405180910390f35b6101d960048036038101906101d49190610b0a565b610579565b005b6101f560048036038101906101f09190610b46565b6106e5565b005b610211600480360381019061020c9190610ab8565b610817565b005b600360009054906101000a900473ffffffffffffffffffffffffffffffffffffffff1673ffffffffffffffffffffffffffffffffffffffff163373ffffffffffffffffffffffffffffffffffffffff16146102a3576040517f08c379a000000000000000000000000000000000000000000000000000000000815260040161029a90610e5d565b60405180910390fd5b6002600083815260200190815260200160002060000160009054906101000a900460ff16610306576040517f08c379a00000000000000000000000000000000000000000000000000000000081526004016102fd90610e1d565b60405180910390fd5b600160009054906101000a900473ffffffffffffffffffffffffffffffffffffffff1673ffffffffffffffffffffffffffffffffffffffff16631783efc383836040518363ffffffff1660e01b8152600401610363929190610ed8565b600060405180830381600087803b15801561037d57600080fd5b505af1158015610391573d6000803e3d6000fd5b505050505050565b600460009054906101000a900473ffffffffffffffffffffffffffffffffffffffff1681565b600360009054906101000a900473ffffffffffffffffffffffffffffffffffffffff1681565b6103ed61089b565b6103f76000610919565b565b600160009054906101000a900473ffffffffffffffffffffffffffffffffffffffff1681565b61042761089b565b80600360006101000a81548173ffffffffffffffffffffffffffffffffffffffff021916908373ffffffffffffffffffffffffffffffffffffffff1602179055507f6a0a25cdd72eecb90c6b5b7eb1d4522dcd45bf68b28d80e61f123ee5cd3995da816040516104979190610dcc565b60405180910390a150565b6104aa61089b565b80600460006101000a81548173ffffffffffffffffffffffffffffffffffffffff021916908373ffffffffffffffffffffffffffffffffffffffff1602179055507fb768bf1496eb252752668611d1b0c2e024539e90ad36ea0f46178c840af2d1378160405161051a9190610dcc565b60405180910390a150565b60008060009054906101000a900473ffffffffffffffffffffffffffffffffffffffff16905090565b60026020528060005260406000206000915090508060000160009054906101000a900460ff16905081565b61058161089b565b6002600083815260200190815260200160002060000160009054906101000a900460ff16156105e5576040517f08c379a00000000000000000000000000000000000000000000000000000000081526004016105dc90610e7d565b60405180910390fd5b60016002600084815260200190815260200160002060000160006101000a81548160ff021916908315150217905550600160009054906101000a900473ffffffffffffffffffffffffffffffffffffffff1673ffffffffffffffffffffffffffffffffffffffff166365e54f8383833062a61d0a6040518563ffffffff1660e01b81526004016106789493929190610f01565b600060405180830381600087803b15801561069257600080fd5b505af11580156106a6573d6000803e3d6000fd5b505050507ff0adfb94eab6daf835deb69c5738fe636150c3dfd08094a76f39b963dc8cb05a826040516106d99190610ebd565b60405180910390a15050565b600360009054906101000a900473ffffffffffffffffffffffffffffffffffffffff1673ffffffffffffffffffffffffffffffffffffffff163373ffffffffffffffffffffffffffffffffffffffff1614610775576040517f08c379a000000000000000000000000000000000000000000000000000000000815260040161076c90610e5d565b60405180910390fd5b600160009054906101000a900473ffffffffffffffffffffffffffffffffffffffff1673ffffffffffffffffffffffffffffffffffffffff1663ec45622a888888888888886040518863ffffffff1660e01b81526004016107dc9796959493929190610f46565b600060405180830381600087803b1580156107f657600080fd5b505af115801561080a573d6000803e3d6000fd5b5050505050505050505050565b61081f61089b565b600073ffffffffffffffffffffffffffffffffffffffff168173ffffffffffffffffffffffffffffffffffffffff16141561088f576040517f08c379a000000000000000000000000000000000000000000000000000000000815260040161088690610e3d565b60405180910390fd5b61089881610919565b50565b6108a36109dd565b73ffffffffffffffffffffffffffffffffffffffff166108c1610525565b73ffffffffffffffffffffffffffffffffffffffff1614610917576040517f08c379a000000000000000000000000000000000000000000000000000000000815260040161090e90610e9d565b60405180910390fd5b565b60008060009054906101000a900473ffffffffffffffffffffffffffffffffffffffff169050816000806101000a81548173ffffffffffffffffffffffffffffffffffffffff021916908373ffffffffffffffffffffffffffffffffffffffff1602179055508173ffffffffffffffffffffffffffffffffffffffff168173ffffffffffffffffffffffffffffffffffffffff167f8be0079c531659141344cd1fd0a4f28419497f9722a3daafe3b4186f6b6457e060405160405180910390a35050565b600033905090565b6000813590506109f481611199565b92915050565b60008083601f840112610a0c57600080fd5b8235905067ffffffffffffffff811115610a2557600080fd5b602083019150836020820283011115610a3d57600080fd5b9250929050565b60008083601f840112610a5657600080fd5b8235905067ffffffffffffffff811115610a6f57600080fd5b602083019150836020820283011115610a8757600080fd5b9250929050565b600081359050610a9d816111b0565b92915050565b600081359050610ab2816111c7565b92915050565b600060208284031215610aca57600080fd5b6000610ad8848285016109e5565b91505092915050565b600060208284031215610af357600080fd5b6000610b0184828501610a8e565b91505092915050565b60008060408385031215610b1d57600080fd5b6000610b2b85828601610a8e565b9250506020610b3c85828601610a8e565b9150509250929050565b600080600080600080600060a0888a031215610b6157600080fd5b6000610b6f8a828b01610a8e565b9750506020610b808a828b01610a8e565b9650506040610b918a828b01610a8e565b955050606088013567ffffffffffffffff811115610bae57600080fd5b610bba8a828b016109fa565b9450945050608088013567ffffffffffffffff811115610bd957600080fd5b610be58a828b01610a44565b925092505092959891949750929550565b6000610c028383610dbd565b60208301905092915050565b610c178161100c565b82525050565b6000610c298385610fc2565b93507f07ffffffffffffffffffffffffffffffffffffffffffffffffffffffffffffff831115610c5857600080fd5b602083029250610c69838584611097565b82840190509392505050565b6000610c818385610fd3565b9350610c8c82610fab565b8060005b85811015610cc557610ca28284610ff5565b610cac8882610bf6565b9750610cb783610fb5565b925050600181019050610c90565b5085925050509392505050565b610cdb8161101e565b82525050565b610cea81611061565b82525050565b610cf981611085565b82525050565b6000610d0c601383610fe4565b9150610d17826110a6565b602082019050919050565b6000610d2f602683610fe4565b9150610d3a826110cf565b604082019050919050565b6000610d52600f83610fe4565b9150610d5d8261111e565b602082019050919050565b6000610d75601483610fe4565b9150610d8082611147565b602082019050919050565b6000610d98602083610fe4565b9150610da382611170565b602082019050919050565b610db78161104a565b82525050565b610dc681611054565b82525050565b6000602082019050610de16000830184610c0e565b92915050565b6000602082019050610dfc6000830184610cd2565b92915050565b6000602082019050610e176000830184610ce1565b92915050565b60006020820190508181036000830152610e3681610cff565b9050919050565b60006020820190508181036000830152610e5681610d22565b9050919050565b60006020820190508181036000830152610e7681610d45565b9050919050565b60006020820190508181036000830152610e9681610d68565b9050919050565b60006020820190508181036000830152610eb681610d8b565b9050919050565b6000602082019050610ed26000830184610dae565b92915050565b6000604082019050610eed6000830185610dae565b610efa6020830184610dae565b9392505050565b6000608082019050610f166000830187610dae565b610f236020830186610dae565b610f306040830185610c0e565b610f3d6060830184610cf0565b95945050505050565b600060a082019050610f5b600083018a610dae565b610f686020830189610dae565b610f756040830188610dae565b8181036060830152610f88818688610c1d565b90508181036080830152610f9d818486610c75565b905098975050505050505050565b6000819050919050565b6000602082019050919050565b600082825260208201905092915050565b600082825260208201905092915050565b600082825260208201905092915050565b60006110046020840184610aa3565b905092915050565b60006110178261102a565b9050919050565b60008115159050919050565b600073ffffffffffffffffffffffffffffffffffffffff82169050919050565b6000819050919050565b600060ff82169050919050565b600061106c82611073565b9050919050565b600061107e8261102a565b9050919050565b60006110908261104a565b9050919050565b82818337600083830152505050565b7f47726f7570206973206e6f742061637469766500000000000000000000000000600082015250565b7f4f776e61626c653a206e6577206f776e657220697320746865207a65726f206160008201527f6464726573730000000000000000000000000000000000000000000000000000602082015250565b7f4e6f742067726f75702061646d696e0000000000000000000000000000000000600082015250565b7f47726f757020616c726561647920657869737473000000000000000000000000600082015250565b7f4f776e61626c653a2063616c6c6572206973206e6f7420746865206f776e6572600082015250565b6111a28161100c565b81146111ad57600080fd5b50565b6111b98161104a565b81146111c457600080fd5b50565b6111d081611054565b81146111db57600080fd5b5056fea26469706673582212209719245c594b6d91dd8d7a55c4f7281cc0b701e9268b6a27e398e1872c59faac64736f6c63430008040033",
  "linkReferences": {},
  "deployedLinkReferences": {}
}