{
  "_format": "hh-sol-artifact-1",
  "contractName": "OpinionXpress",
  "sourceName": "contracts/OpinionXpress.sol",
  "abi": [
    {
      "inputs": [
        {
          "internalType": "address",
          "name": "semaphoreAddress",
          "type": "address"
        },
        {
          "internalType": "address",
          "name": "verifierAddress",
          "type": "address"
        }
      ],
      "stateMutability": "nonpayable",
      "type": "constructor"
    },
    {
      "anonymous": false,
      "inputs": [
        {
          "indexed": false,
          "internalType": "address",
          "name": "newAdmin",
          "type": "address"
        }
      ],
      "name": "GroupAdminChanged",
      "type": "event"
    },
    {
      "anonymous": false,
      "inputs": [
        {
          "indexed": false,
          "internalType": "uint256",
          "name": "groupId",
          "type": "uint256"
        },
        {
          "indexed": false,
          "internalType": "uint256",
          "name": "depth",
          "type": "uint256"
        }
      ],
      "name": "GroupCreated",
      "type": "event"
    },
    {
      "anonymous": false,
      "inputs": [
        {
          "indexed": true,
          "internalType": "address",
          "name": "previousOwner",
          "type": "address"
        },
        {
          "indexed": true,
          "internalType": "address",
          "name": "newOwner",
          "type": "address"
        }
      ],
      "name": "OwnershipTransferred",
      "type": "event"
    },
    {
      "anonymous": false,
      "inputs": [
        {
          "indexed": false,
          "internalType": "uint256",
          "name": "pollId",
          "type": "uint256"
        },
        {
          "indexed": false,
          "internalType": "string",
          "name": "text",
          "type": "string"
        }
      ],
      "name": "PollCreated",
      "type": "event"
    },
    {
      "anonymous": false,
      "inputs": [
        {
          "indexed": false,
          "internalType": "uint256",
          "name": "surveyId",
          "type": "uint256"
        },
        {
          "indexed": false,
          "internalType": "string",
          "name": "ipfsLink",
          "type": "string"
        },
        {
          "indexed": false,
          "internalType": "uint256",
          "name": "questionsCount",
          "type": "uint256"
        },
        {
          "indexed": false,
          "internalType": "uint256",
          "name": "optionsPerQuestion",
          "type": "uint256"
        }
      ],
      "name": "SurveyCreated",
      "type": "event"
    },
    {
      "anonymous": false,
      "inputs": [
        {
          "indexed": false,
          "internalType": "uint256",
          "name": "surveyID",
          "type": "uint256"
        },
        {
          "indexed": false,
          "internalType": "uint256",
          "name": "encodedResponses",
          "type": "uint256"
        }
      ],
      "name": "SurveyResponseSubmitted",
      "type": "event"
    },
    {
      "anonymous": false,
      "inputs": [
        {
          "indexed": false,
          "internalType": "address",
          "name": "newAdmin",
          "type": "address"
        }
      ],
      "name": "VoteAdminChanged",
      "type": "event"
    },
    {
      "anonymous": false,
      "inputs": [
        {
          "indexed": false,
          "internalType": "uint256",
          "name": "pollId",
          "type": "uint256"
        },
        {
          "indexed": false,
          "internalType": "uint256",
          "name": "vote",
          "type": "uint256"
        }
      ],
      "name": "VoteCasted",
      "type": "event"
    },
    {
      "inputs": [
        {
          "internalType": "uint256",
          "name": "groupId",
          "type": "uint256"
        },
        {
          "internalType": "uint256",
          "name": "identityCommitment",
          "type": "uint256"
        }
      ],
      "name": "addMember",
      "outputs": [],
      "stateMutability": "nonpayable",
      "type": "function"
    },
    {
      "inputs": [
        {
          "internalType": "uint8",
          "name": "vote",
          "type": "uint8"
        },
        {
          "internalType": "uint256",
          "name": "merkleTreeRoot",
          "type": "uint256"
        },
        {
          "internalType": "uint256",
          "name": "nullifierHash",
          "type": "uint256"
        },
        {
          "internalType": "uint256",
          "name": "pollId",
          "type": "uint256"
        },
        {
          "internalType": "uint256[8]",
          "name": "proof",
          "type": "uint256[8]"
        },
        {
          "internalType": "uint256",
          "name": "groupId",
          "type": "uint256"
        }
      ],
      "name": "castVote",
      "outputs": [],
      "stateMutability": "nonpayable",
      "type": "function"
    },
    {
      "inputs": [
        {
          "internalType": "address",
          "name": "newAdmin",
          "type": "address"
        }
      ],
      "name": "changeGroupAdmin",
      "outputs": [],
      "stateMutability": "nonpayable",
      "type": "function"
    },
    {
      "inputs": [
        {
          "internalType": "address",
          "name": "newAdmin",
          "type": "address"
        }
      ],
      "name": "changeVoteAdmin",
      "outputs": [],
      "stateMutability": "nonpayable",
      "type": "function"
    },
    {
      "inputs": [
        {
          "internalType": "uint256",
          "name": "groupId",
          "type": "uint256"
        },
        {
          "internalType": "uint256",
          "name": "depth",
          "type": "uint256"
        }
      ],
      "name": "createGroup",
      "outputs": [],
      "stateMutability": "nonpayable",
      "type": "function"
    },
    {
      "inputs": [
        {
          "internalType": "uint256",
          "name": "pollId",
          "type": "uint256"
        },
        {
          "internalType": "string",
          "name": "_text",
          "type": "string"
        },
        {
          "internalType": "uint256[]",
          "name": "groupIds",
          "type": "uint256[]"
        }
      ],
      "name": "createPoll",
      "outputs": [],
      "stateMutability": "nonpayable",
      "type": "function"
    },
    {
      "inputs": [
        {
          "internalType": "string",
          "name": "ipfsLink",
          "type": "string"
        },
        {
          "internalType": "uint256",
          "name": "questionsCount",
          "type": "uint256"
        },
        {
          "internalType": "uint256",
          "name": "optionsPerQuestion",
          "type": "uint256"
        },
        {
          "internalType": "uint256[]",
          "name": "groupIds",
          "type": "uint256[]"
        }
      ],
      "name": "createSurvey",
      "outputs": [],
      "stateMutability": "nonpayable",
      "type": "function"
    },
    {
      "inputs": [
        {
          "internalType": "uint256",
          "name": "surveyId",
          "type": "uint256"
        }
      ],
      "name": "getSurvey",
      "outputs": [
        {
          "internalType": "string",
          "name": "ipfsLink",
          "type": "string"
        },
        {
          "internalType": "uint256",
          "name": "questionsCount",
          "type": "uint256"
        },
        {
          "internalType": "uint256",
          "name": "optionsPerQuestion",
          "type": "uint256"
        },
        {
          "internalType": "uint256[][]",
          "name": "results",
          "type": "uint256[][]"
        }
      ],
      "stateMutability": "view",
      "type": "function"
    },
    {
      "inputs": [
        {
          "internalType": "uint256",
          "name": "pollId",
          "type": "uint256"
        }
      ],
      "name": "getVotes",
      "outputs": [
        {
          "internalType": "uint32[]",
          "name": "",
          "type": "uint32[]"
        }
      ],
      "stateMutability": "view",
      "type": "function"
    },
    {
      "inputs": [],
      "name": "groupAdmin",
      "outputs": [
        {
          "internalType": "address",
          "name": "",
          "type": "address"
        }
      ],
      "stateMutability": "view",
      "type": "function"
    },
    {
      "inputs": [
        {
          "internalType": "uint256",
          "name": "",
          "type": "uint256"
        }
      ],
      "name": "groups",
      "outputs": [
        {
          "internalType": "bool",
          "name": "isActive",
          "type": "bool"
        },
        {
          "internalType": "uint256",
          "name": "depth",
          "type": "uint256"
        }
      ],
      "stateMutability": "view",
      "type": "function"
    },
    {
      "inputs": [
        {
          "internalType": "uint256",
          "name": "pollId",
          "type": "uint256"
        },
        {
          "internalType": "uint256",
          "name": "groupId",
          "type": "uint256"
        }
      ],
      "name": "isGroupAllowed",
      "outputs": [
        {
          "internalType": "bool",
          "name": "",
          "type": "bool"
        }
      ],
      "stateMutability": "view",
      "type": "function"
    },
    {
      "inputs": [
        {
          "internalType": "uint256",
          "name": "pollId",
          "type": "uint256"
        },
        {
          "internalType": "uint256",
          "name": "nullifierHash",
          "type": "uint256"
        }
      ],
      "name": "isNullifierUsed",
      "outputs": [
        {
          "internalType": "bool",
          "name": "",
          "type": "bool"
        }
      ],
      "stateMutability": "view",
      "type": "function"
    },
    {
      "inputs": [],
      "name": "nextSurveyId",
      "outputs": [
        {
          "internalType": "uint256",
          "name": "",
          "type": "uint256"
        }
      ],
      "stateMutability": "view",
      "type": "function"
    },
    {
      "inputs": [],
      "name": "owner",
      "outputs": [
        {
          "internalType": "address",
          "name": "",
          "type": "address"
        }
      ],
      "stateMutability": "view",
      "type": "function"
    },
    {
      "inputs": [
        {
          "internalType": "uint256",
          "name": "",
          "type": "uint256"
        }
      ],
      "name": "polls",
      "outputs": [
        {
          "internalType": "enum OpinionXpress.PollState",
          "name": "state",
          "type": "uint8"
        },
        {
          "internalType": "uint32",
          "name": "yesCounter",
          "type": "uint32"
        },
        {
          "internalType": "uint32",
          "name": "noCounter",
          "type": "uint32"
        },
        {
          "internalType": "string",
          "name": "text",
          "type": "string"
        }
      ],
      "stateMutability": "view",
      "type": "function"
    },
    {
      "inputs": [],
      "name": "renounceOwnership",
      "outputs": [],
      "stateMutability": "nonpayable",
      "type": "function"
    },
    {
      "inputs": [],
      "name": "semaphore",
      "outputs": [
        {
          "internalType": "contract ISemaphore",
          "name": "",
          "type": "address"
        }
      ],
      "stateMutability": "view",
      "type": "function"
    },
    {
      "inputs": [
        {
          "internalType": "uint256",
          "name": "surveyId",
          "type": "uint256"
        },
        {
          "internalType": "uint256",
          "name": "encodedResponses",
          "type": "uint256"
        },
        {
          "internalType": "uint256",
          "name": "merkleTreeRoot",
          "type": "uint256"
        },
        {
          "internalType": "uint256",
          "name": "nullifierHash",
          "type": "uint256"
        },
        {
          "internalType": "uint256[8]",
          "name": "proof",
          "type": "uint256[8]"
        },
        {
          "internalType": "uint256",
          "name": "groupId",
          "type": "uint256"
        }
      ],
      "name": "submitSurveyResponse",
      "outputs": [],
      "stateMutability": "nonpayable",
      "type": "function"
    },
    {
      "inputs": [
        {
          "internalType": "uint256",
          "name": "",
          "type": "uint256"
        }
      ],
      "name": "surveys",
      "outputs": [
        {
          "internalType": "string",
          "name": "ipfsLink",
          "type": "string"
        },
        {
          "internalType": "uint256",
          "name": "questionsCount",
          "type": "uint256"
        },
        {
          "internalType": "uint256",
          "name": "optionsPerQuestion",
          "type": "uint256"
        }
      ],
      "stateMutability": "view",
      "type": "function"
    },
    {
      "inputs": [
        {
          "internalType": "address",
          "name": "newOwner",
          "type": "address"
        }
      ],
      "name": "transferOwnership",
      "outputs": [],
      "stateMutability": "nonpayable",
      "type": "function"
    },
    {
      "inputs": [
        {
          "internalType": "uint256",
          "name": "groupId",
          "type": "uint256"
        },
        {
          "internalType": "uint256",
          "name": "identityCommitment",
          "type": "uint256"
        },
        {
          "internalType": "uint256",
          "name": "newIdentityCommitment",
          "type": "uint256"
        },
        {
          "internalType": "uint256[]",
          "name": "proofSiblings",
          "type": "uint256[]"
        },
        {
          "internalType": "uint8[]",
          "name": "proofPathIndices",
          "type": "uint8[]"
        }
      ],
      "name": "updateMember",
      "outputs": [],
      "stateMutability": "nonpayable",
      "type": "function"
    },
    {
      "inputs": [],
      "name": "verifier",
      "outputs": [
        {
          "internalType": "contract ISemaphoreVerifier",
          "name": "",
          "type": "address"
        }
      ],
      "stateMutability": "view",
      "type": "function"
    },
    {
      "inputs": [],
      "name": "voteAdmin",
      "outputs": [
        {
          "internalType": "address",
          "name": "",
          "type": "address"
        }
      ],
      "stateMutability": "view",
      "type": "function"
    }
  ],
  "bytecode": "0x60806040523480156200001157600080fd5b5060405162002175380380620021758339810160408190526200003491620000f9565b6200003f336200008c565b600380546001600160a01b03199081166001600160a01b03948516179091556004805482169290931691909117909155600780543390831681179091556008805490921617905562000130565b600080546001600160a01b038381166001600160a01b0319831681178455604051919092169283917f8be0079c531659141344cd1fd0a4f28419497f9722a3daafe3b4186f6b6457e09190a35050565b80516001600160a01b0381168114620000f457600080fd5b919050565b600080604083850312156200010c578182fd5b6200011783620000dc565b91506200012760208401620000dc565b90509250929050565b61203580620001406000396000f3fe608060405234801561001057600080fd5b50600436106101985760003560e01c806389670e15116100e3578063ac2f00741161008c578063ec45622a11610066578063ec45622a146103d1578063f2fde38b146103e4578063ff981099146103f757600080fd5b8063ac2f007414610365578063cff760f414610388578063ebc862071461039f57600080fd5b806396324bd4116100bd57806396324bd4146102fb578063980cb3ac1461033f5780639f7a81f01461035257600080fd5b806389670e15146102b45780638ca1b18f146102d75780638da5cb5b146102ea57600080fd5b806360f52cbc1161014557806385c742961161011f57806385c742961461025c57806386e68b901461027f578063882fc557146102a157600080fd5b806360f52cbc1461022e578063715018a6146102415780637b5d25341461024957600080fd5b80633a04eefa116101765780633a04eefa146101f557806340e39531146102085780635e2119de1461021b57600080fd5b80631783efc31461019d5780632b7ac3f3146101b25780632d2c6332146101e2575b600080fd5b6101b06101ab366004611abc565b610417565b005b6004546101c5906001600160a01b031681565b6040516001600160a01b0390911681526020015b60405180910390f35b6008546101c5906001600160a01b031681565b6101b0610203366004611a38565b610556565b6007546101c5906001600160a01b031681565b6101b0610229366004611bba565b610771565b6101b061023c366004611936565b610a0f565b6101b0610a2b565b6003546101c5906001600160a01b031681565b61026f61026a366004611abc565b610a3f565b60405190151581526020016101d9565b61029261028d366004611a20565b610a66565b6040516101d993929190611cea565b6101b06102af366004611908565b610b10565b6102c76102c2366004611a20565b610b7a565b6040516101d99493929190611d0f565b6101b06102e5366004611908565b610e08565b6000546001600160a01b03166101c5565b610328610309366004611a20565b6006602052600090815260409020805460019091015460ff9091169082565b6040805192151583526020830191909152016101d9565b6101b061034d366004611abc565b610e6b565b6101b0610360366004611b67565b610fbd565b610378610373366004611a20565b611043565b6040516101d99493929190611c95565b61039160025481565b6040519081526020016101d9565b61026f6103ad366004611abc565b60009182526005602090815260408084209284526003909201905290205460ff1690565b6101b06103df366004611add565b611104565b6101b06103f2366004611908565b6111ee565b61040a610405366004611a20565b61127e565b6040516101d99190611c4b565b6007546001600160a01b031633146104765760405162461bcd60e51b815260206004820152600f60248201527f4e6f742067726f75702061646d696e000000000000000000000000000000000060448201526064015b60405180910390fd5b60008281526006602052604090205460ff166104d45760405162461bcd60e51b815260206004820152601360248201527f47726f7570206973206e6f742061637469766500000000000000000000000000604482015260640161046d565b6003546040517f1783efc300000000000000000000000000000000000000000000000000000000815260048101849052602481018390526001600160a01b0390911690631783efc390604401600060405180830381600087803b15801561053a57600080fd5b505af115801561054e573d6000803e3d6000fd5b505050505050565b61055e611350565b826105ab5760405162461bcd60e51b815260206004820152601960248201527f506f6c6c20746578742063616e6e6f7420626520656d70747900000000000000604482015260640161046d565b60008581526005602052604090206001810180546105c890611f7d565b1590506106175760405162461bcd60e51b815260206004820152601360248201527f506f6c6c20616c72656164792065786973747300000000000000000000000000604482015260640161046d565b805460ff1916815561062d600182018686611789565b5060005b8281101561072d576006600085858481811061065d57634e487b7160e01b600052603260045260246000fd5b602090810292909201358352508101919091526040016000205460ff166106c65760405162461bcd60e51b815260206004820152601460248201527f47726f757020646f65736e277420657869737473000000000000000000000000604482015260640161046d565b60018260030160008686858181106106ee57634e487b7160e01b600052603260045260246000fd5b90506020020135815260200190815260200160002060006101000a81548160ff021916908315150217905550808061072590611fb8565b915050610631565b507f65d5ac2bf1bca69566bef1affdfca5bb37b9577fc0b3af4c7c4638225e67b39c86868660405161076193929190611db3565b60405180910390a1505050505050565b60028660ff16106107c45760405162461bcd60e51b815260206004820152600860248201527f566f7465203e2031000000000000000000000000000000000000000000000000604482015260640161046d565b600083815260056020908152604080832084845260030190915290205460ff166108305760405162461bcd60e51b815260206004820152601160248201527f47726f7570206e6f7420616c6c6f776564000000000000000000000000000000604482015260640161046d565b61083a8385610a3f565b156108875760405162461bcd60e51b815260206004820152600e60248201527f55736564204e756c6c6966696572000000000000000000000000000000000000604482015260640161046d565b6004805460008381526006602052604090819020600101549051634d65479560e11b81526001600160a01b0390921692639aca8f2a926108d1928a928a928d928b928b9201611efa565b60006040518083038186803b1580156108e957600080fd5b505afa1580156108fd573d6000803e3d6000fd5b50505060008481526005602090815260408083208884526002019091529020805460ff191660011790555060ff861661098057600083815260056020819052604090912080546001929061096190849065010000000000900463ffffffff16611f36565b92506101000a81548163ffffffff021916908363ffffffff1602179055505b8560ff16600114156109d757600083815260056020526040902080546001919082906109b8908290610100900463ffffffff16611f36565b92506101000a81548163ffffffff021916908363ffffffff1602179055505b6040805184815260ff881660208201527f5d4760119c8e8650149aac097d38c70515dfce015031561ad115606533e479be9101610761565b610a17611350565b610a2485858585856113aa565b5050505050565b610a33611350565b610a3d60006114d3565b565b600082815260056020908152604080832084845260020190915290205460ff165b92915050565b600160205260009081526040902080548190610a8190611f7d565b80601f0160208091040260200160405190810160405280929190818152602001828054610aad90611f7d565b8015610afa5780601f10610acf57610100808354040283529160200191610afa565b820191906000526020600020905b815481529060010190602001808311610add57829003601f168201915b5050505050908060010154908060020154905083565b610b18611350565b6007805473ffffffffffffffffffffffffffffffffffffffff19166001600160a01b0383169081179091556040519081527f6a0a25cdd72eecb90c6b5b7eb1d4522dcd45bf68b28d80e61f123ee5cd3995da906020015b60405180910390a150565b606060008060606002548510610bd25760405162461bcd60e51b815260206004820152601160248201527f496e76616c696420737572766579204944000000000000000000000000000000604482015260640161046d565b600085815260016020526040902080548190610bed90611f7d565b80601f0160208091040260200160405190810160405280929190818152602001828054610c1990611f7d565b8015610c665780601f10610c3b57610100808354040283529160200191610c66565b820191906000526020600020905b815481529060010190602001808311610c4957829003601f168201915b5050505050945080600101549350806002015492508367ffffffffffffffff811115610ca257634e487b7160e01b600052604160045260246000fd5b604051908082528060200260200182016040528015610cd557816020015b6060815260200190600190039081610cc05790505b50915060005b84811015610dff578367ffffffffffffffff811115610d0a57634e487b7160e01b600052604160045260246000fd5b604051908082528060200260200182016040528015610d33578160200160208202803683370190505b50838281518110610d5457634e487b7160e01b600052603260045260246000fd5b602002602001018190525060005b84811015610dec57600082815260058401602090815260408083208484529091529020548451859084908110610da857634e487b7160e01b600052603260045260246000fd5b60200260200101518281518110610dcf57634e487b7160e01b600052603260045260246000fd5b602090810291909101015280610de481611fb8565b915050610d62565b5080610df781611fb8565b915050610cdb565b50509193509193565b610e10611350565b6008805473ffffffffffffffffffffffffffffffffffffffff19166001600160a01b0383169081179091556040519081527fb768bf1496eb252752668611d1b0c2e024539e90ad36ea0f46178c840af2d13790602001610b6f565b610e73611350565b60008281526006602052604090205460ff1615610ed25760405162461bcd60e51b815260206004820152601460248201527f47726f757020616c726561647920657869737473000000000000000000000000604482015260640161046d565b60008281526006602052604090819020805460ff1916600190811782550182905560035490517f65e54f83000000000000000000000000000000000000000000000000000000008152600481018490526024810183905230604482015262a61d0a60648201526001600160a01b03909116906365e54f8390608401600060405180830381600087803b158015610f6757600080fd5b505af1158015610f7b573d6000803e3d6000fd5b505060408051858152602081018590527f45c2f3d170bd0d6d1e4ac999b02ef5349552b6a99826397251a84fc1a49a9e58935001905060405180910390a15050565b6004805460008381526006602052604090819020600101549051634d65479560e11b81526001600160a01b0390921692639aca8f2a9261100792899289928c928e928b9201611ebf565b60006040518083038186803b15801561101f57600080fd5b505afa158015611033573d6000803e3d6000fd5b5050505061054e86868584611530565b6005602052600090815260409020805460018201805460ff83169363ffffffff61010085048116946501000000000090041692909161108190611f7d565b80601f01602080910402602001604051908101604052809291908181526020018280546110ad90611f7d565b80156110fa5780601f106110cf576101008083540402835291602001916110fa565b820191906000526020600020905b8154815290600101906020018083116110dd57829003601f168201915b5050505050905084565b6007546001600160a01b0316331461115e5760405162461bcd60e51b815260206004820152600f60248201527f4e6f742067726f75702061646d696e0000000000000000000000000000000000604482015260640161046d565b6003546040517fec45622a0000000000000000000000000000000000000000000000000000000081526001600160a01b039091169063ec45622a906111b3908a908a908a908a908a908a908a90600401611e15565b600060405180830381600087803b1580156111cd57600080fd5b505af11580156111e1573d6000803e3d6000fd5b5050505050505050505050565b6111f6611350565b6001600160a01b0381166112725760405162461bcd60e51b815260206004820152602660248201527f4f776e61626c653a206e6577206f776e657220697320746865207a65726f206160448201527f6464726573730000000000000000000000000000000000000000000000000000606482015260840161046d565b61127b816114d3565b50565b60408051600280825260608083018452926000929190602083019080368337019050506000848152600560205260408120548251929350610100900463ffffffff16918391906112de57634e487b7160e01b600052603260045260246000fd5b63ffffffff928316602091820292909201810191909152600085815260059091526040902054825165010000000000909104909116908290600190811061133557634e487b7160e01b600052603260045260246000fd5b63ffffffff9092166020928302919091019091015292915050565b6000546001600160a01b03163314610a3d5760405162461bcd60e51b815260206004820181905260248201527f4f776e61626c653a2063616c6c6572206973206e6f7420746865206f776e6572604482015260640161046d565b600254600090815260016020908152604090912086516113cc9288019061180d565b506002805460009081526001602081905260408083209091018790558254825281209091018490555b818110156114775760018060006002548152602001908152602001600020600301600085858581811061143857634e487b7160e01b600052603260045260246000fd5b90506020020135815260200190815260200160002060006101000a81548160ff021916908315150217905550808061146f90611fb8565b9150506113f5565b507fcff562b0fae05777e830a3e34cf1dac61cc6b59915d72998ca8cfde802b08aba6002548686866040516114af9493929190611de9565b60405180910390a1600280549060006114c783611fb8565b91905055505050505050565b600080546001600160a01b0383811673ffffffffffffffffffffffffffffffffffffffff19831681178455604051919092169283917f8be0079c531659141344cd1fd0a4f28419497f9722a3daafe3b4186f6b6457e09190a35050565b60025484106115815760405162461bcd60e51b815260206004820152601160248201527f496e76616c696420737572766579204944000000000000000000000000000000604482015260640161046d565b60008481526001602081815260408084208685526004019091529091205460ff16151514156115f25760405162461bcd60e51b815260206004820152601160248201527f416c7265616479205375626d6974746564000000000000000000000000000000604482015260640161046d565b600084815260016020908152604080832084845260030190915290205460ff1661165e5760405162461bcd60e51b815260206004820152601160248201527f4e6f7420616c6c6f7765642047726f7570000000000000000000000000000000604482015260640161046d565b6000848152600160205260408120905b8160010154811015611722576000611687826002611f5e565b86901c6003169050826002015481106116e25760405162461bcd60e51b815260206004820152601060248201527f496e76616c696420726573706f6e736500000000000000000000000000000000604482015260640161046d565b60008281526005840160209081526040808320848452909152812080549161170983611fb8565b919050555050808061171a90611fb8565b91505061166e565b506000858152600160208181526040808420878552600401825292839020805460ff191690921790915581518781529081018690527f8ed5309e867deb14d0cce67c0f0f542d0c1ffa8e5c903c92252f5b60ee57b824910160405180910390a15050505050565b82805461179590611f7d565b90600052602060002090601f0160209004810192826117b757600085556117fd565b82601f106117d05782800160ff198235161785556117fd565b828001600101855582156117fd579182015b828111156117fd5782358255916020019190600101906117e2565b50611809929150611881565b5090565b82805461181990611f7d565b90600052602060002090601f01602090048101928261183b57600085556117fd565b82601f1061185457805160ff19168380011785556117fd565b828001600101855582156117fd579182015b828111156117fd578251825591602001919060010190611866565b5b808211156118095760008155600101611882565b806101008101831015610a6057600080fd5b60008083601f8401126118b9578182fd5b50813567ffffffffffffffff8111156118d0578182fd5b6020830191508360208260051b85010111156118eb57600080fd5b9250929050565b803560ff8116811461190357600080fd5b919050565b600060208284031215611919578081fd5b81356001600160a01b038116811461192f578182fd5b9392505050565b60008060008060006080868803121561194d578081fd5b853567ffffffffffffffff80821115611964578283fd5b818801915088601f830112611977578283fd5b81358181111561198957611989611fe9565b604051601f8201601f19908116603f011681019083821181831017156119b1576119b1611fe9565b816040528281528b60208487010111156119c9578586fd5b82602086016020830137856020848301015280995050505060208801359550604088013594506060880135915080821115611a02578283fd5b50611a0f888289016118a8565b969995985093965092949392505050565b600060208284031215611a31578081fd5b5035919050565b600080600080600060608688031215611a4f578081fd5b85359450602086013567ffffffffffffffff80821115611a6d578283fd5b818801915088601f830112611a80578283fd5b813581811115611a8e578384fd5b896020828501011115611a9f578384fd5b602083019650809550506040880135915080821115611a02578283fd5b60008060408385031215611ace578182fd5b50508035926020909101359150565b600080600080600080600060a0888a031215611af7578182fd5b873596506020880135955060408801359450606088013567ffffffffffffffff80821115611b23578384fd5b611b2f8b838c016118a8565b909650945060808a0135915080821115611b47578384fd5b50611b548a828b016118a8565b989b979a50959850939692959293505050565b6000806000806000806101a08789031215611b80578182fd5b86359550602087013594506040870135935060608701359250611ba68860808901611896565b915061018087013590509295509295509295565b6000806000806000806101a08789031215611bd3578182fd5b611bdc876118f2565b9550602087013594506040870135935060608701359250611ba68860808901611896565b60008151808452815b81811015611c2557602081850181015186830182015201611c09565b81811115611c365782602083870101525b50601f01601f19169290920160200192915050565b6020808252825182820181905260009190848201906040850190845b81811015611c8957835163ffffffff1683529284019291840191600101611c67565b50909695505050505050565b600060038610611cb357634e487b7160e01b81526021600452602481fd5b85825263ffffffff808616602084015280851660408401525060806060830152611ce06080830184611c00565b9695505050505050565b606081526000611cfd6060830186611c00565b60208301949094525060400152919050565b608081526000611d226080830187611c00565b6020868185015285604085015283820360608501528185518084528284019150828160051b850101838801865b83811015611da257868303601f190185528151805180855290870190878501908a5b81811015611d8d57835183529289019291890191600101611d71565b50509587019593505090850190600101611d4f565b50909b9a5050505050505050505050565b83815260406020820152816040820152818360608301376000818301606090810191909152601f909201601f1916010192915050565b848152608060208201526000611e026080830186611c00565b6040830194909452506060015292915050565b87815260006020888184015287604084015260a060608401528560a08401527f07ffffffffffffffffffffffffffffffffffffffffffffffffffffffffffffff861115611e60578182fd5b8560051b808860c0860137830183810360c0908101608086015281018590528590839060e0015b86821015611eaf5760ff611e9a846118f2565b16815291830191600191909101908301611e87565b9c9b505050505050505050505050565b60006101a082019050878252866020830152856040830152846060830152610100846080840137610180919091019190915295945050505050565b8681526020810186905260ff85166040820152606081018490526101a08101610100846080840137610180919091019190915295945050505050565b600063ffffffff808316818516808303821115611f5557611f55611fd3565b01949350505050565b6000816000190483118215151615611f7857611f78611fd3565b500290565b600181811c90821680611f9157607f821691505b60208210811415611fb257634e487b7160e01b600052602260045260246000fd5b50919050565b6000600019821415611fcc57611fcc611fd3565b5060010190565b634e487b7160e01b600052601160045260246000fd5b634e487b7160e01b600052604160045260246000fdfea264697066735822122050e1a5a8f84c22d5746a80e95ced9374d0174233a8359e0f9351e1373e8a83c864736f6c63430008040033",
  "linkReferences": {},
  "deployedLinkReferences": {}
}