{
  "_format": "hh-sol-artifact-1",
  "contractName": "OpinionXpress",
  "sourceName": "contracts/OpinionXpress.sol",
  "abi": [
    {
      "inputs": [
        {
          "internalType": "address",
          "name": "semaphoreAddress",
          "type": "address"
        },
        {
          "internalType": "address",
          "name": "verifierAddress",
          "type": "address"
        }
      ],
      "stateMutability": "nonpayable",
      "type": "constructor"
    },
    {
      "anonymous": false,
      "inputs": [
        {
          "indexed": false,
          "internalType": "address",
          "name": "newAdmin",
          "type": "address"
        }
      ],
      "name": "GroupAdminChanged",
      "type": "event"
    },
    {
      "anonymous": false,
      "inputs": [
        {
          "indexed": false,
          "internalType": "uint256",
          "name": "groupId",
          "type": "uint256"
        }
      ],
      "name": "GroupCreated",
      "type": "event"
    },
    {
      "anonymous": false,
      "inputs": [
        {
          "indexed": true,
          "internalType": "address",
          "name": "previousOwner",
          "type": "address"
        },
        {
          "indexed": true,
          "internalType": "address",
          "name": "newOwner",
          "type": "address"
        }
      ],
      "name": "OwnershipTransferred",
      "type": "event"
    },
    {
      "anonymous": false,
      "inputs": [
        {
          "indexed": false,
          "internalType": "uint256",
          "name": "pollId",
          "type": "uint256"
        },
        {
          "indexed": false,
          "internalType": "string",
          "name": "text",
          "type": "string"
        }
      ],
      "name": "PollCreated",
      "type": "event"
    },
    {
      "anonymous": false,
      "inputs": [
        {
          "indexed": false,
          "internalType": "address",
          "name": "newAdmin",
          "type": "address"
        }
      ],
      "name": "VoteAdminChanged",
      "type": "event"
    },
    {
      "anonymous": false,
      "inputs": [
        {
          "indexed": false,
          "internalType": "uint256",
          "name": "pollId",
          "type": "uint256"
        },
        {
          "indexed": false,
          "internalType": "uint256",
          "name": "vote",
          "type": "uint256"
        }
      ],
      "name": "VoteCasted",
      "type": "event"
    },
    {
      "inputs": [
        {
          "internalType": "uint256",
          "name": "groupId",
          "type": "uint256"
        },
        {
          "internalType": "uint256",
          "name": "identityCommitment",
          "type": "uint256"
        }
      ],
      "name": "addMember",
      "outputs": [],
      "stateMutability": "nonpayable",
      "type": "function"
    },
    {
      "inputs": [
        {
          "internalType": "uint8",
          "name": "vote",
          "type": "uint8"
        },
        {
          "internalType": "uint256",
          "name": "merkleTreeRoot",
          "type": "uint256"
        },
        {
          "internalType": "uint256",
          "name": "nullifierHash",
          "type": "uint256"
        },
        {
          "internalType": "uint256",
          "name": "pollId",
          "type": "uint256"
        },
        {
          "internalType": "uint256[8]",
          "name": "proof",
          "type": "uint256[8]"
        },
        {
          "internalType": "uint256",
          "name": "groupId",
          "type": "uint256"
        }
      ],
      "name": "castVote",
      "outputs": [],
      "stateMutability": "nonpayable",
      "type": "function"
    },
    {
      "inputs": [
        {
          "internalType": "address",
          "name": "newAdmin",
          "type": "address"
        }
      ],
      "name": "changeGroupAdmin",
      "outputs": [],
      "stateMutability": "nonpayable",
      "type": "function"
    },
    {
      "inputs": [
        {
          "internalType": "address",
          "name": "newAdmin",
          "type": "address"
        }
      ],
      "name": "changeVoteAdmin",
      "outputs": [],
      "stateMutability": "nonpayable",
      "type": "function"
    },
    {
      "inputs": [
        {
          "internalType": "uint256",
          "name": "groupId",
          "type": "uint256"
        },
        {
          "internalType": "uint256",
          "name": "depth",
          "type": "uint256"
        }
      ],
      "name": "createGroup",
      "outputs": [],
      "stateMutability": "nonpayable",
      "type": "function"
    },
    {
      "inputs": [
        {
          "internalType": "uint256",
          "name": "pollId",
          "type": "uint256"
        },
        {
          "internalType": "string",
          "name": "_text",
          "type": "string"
        },
        {
          "internalType": "uint256[]",
          "name": "groupIds",
          "type": "uint256[]"
        }
      ],
      "name": "createPoll",
      "outputs": [],
      "stateMutability": "nonpayable",
      "type": "function"
    },
    {
      "inputs": [
        {
          "internalType": "uint256",
          "name": "pollId",
          "type": "uint256"
        }
      ],
      "name": "getVotes",
      "outputs": [
        {
          "internalType": "uint32[]",
          "name": "",
          "type": "uint32[]"
        }
      ],
      "stateMutability": "view",
      "type": "function"
    },
    {
      "inputs": [],
      "name": "groupAdmin",
      "outputs": [
        {
          "internalType": "address",
          "name": "",
          "type": "address"
        }
      ],
      "stateMutability": "view",
      "type": "function"
    },
    {
      "inputs": [
        {
          "internalType": "uint256",
          "name": "",
          "type": "uint256"
        }
      ],
      "name": "groups",
      "outputs": [
        {
          "internalType": "bool",
          "name": "isActive",
          "type": "bool"
        },
        {
          "internalType": "uint256",
          "name": "depth",
          "type": "uint256"
        }
      ],
      "stateMutability": "view",
      "type": "function"
    },
    {
      "inputs": [
        {
          "internalType": "uint256",
          "name": "pollId",
          "type": "uint256"
        },
        {
          "internalType": "uint256",
          "name": "groupId",
          "type": "uint256"
        }
      ],
      "name": "isGroupAllowed",
      "outputs": [
        {
          "internalType": "bool",
          "name": "",
          "type": "bool"
        }
      ],
      "stateMutability": "view",
      "type": "function"
    },
    {
      "inputs": [
        {
          "internalType": "uint256",
          "name": "pollId",
          "type": "uint256"
        },
        {
          "internalType": "uint256",
          "name": "nullifierHash",
          "type": "uint256"
        }
      ],
      "name": "isNullifierUsed",
      "outputs": [
        {
          "internalType": "bool",
          "name": "",
          "type": "bool"
        }
      ],
      "stateMutability": "view",
      "type": "function"
    },
    {
      "inputs": [],
      "name": "owner",
      "outputs": [
        {
          "internalType": "address",
          "name": "",
          "type": "address"
        }
      ],
      "stateMutability": "view",
      "type": "function"
    },
    {
      "inputs": [
        {
          "internalType": "uint256",
          "name": "",
          "type": "uint256"
        }
      ],
      "name": "polls",
      "outputs": [
        {
          "internalType": "enum OpinionXpress.PollState",
          "name": "state",
          "type": "uint8"
        },
        {
          "internalType": "uint32",
          "name": "yesCounter",
          "type": "uint32"
        },
        {
          "internalType": "uint32",
          "name": "noCounter",
          "type": "uint32"
        },
        {
          "internalType": "string",
          "name": "text",
          "type": "string"
        }
      ],
      "stateMutability": "view",
      "type": "function"
    },
    {
      "inputs": [],
      "name": "renounceOwnership",
      "outputs": [],
      "stateMutability": "nonpayable",
      "type": "function"
    },
    {
      "inputs": [],
      "name": "semaphore",
      "outputs": [
        {
          "internalType": "contract ISemaphore",
          "name": "",
          "type": "address"
        }
      ],
      "stateMutability": "view",
      "type": "function"
    },
    {
      "inputs": [
        {
          "internalType": "address",
          "name": "newOwner",
          "type": "address"
        }
      ],
      "name": "transferOwnership",
      "outputs": [],
      "stateMutability": "nonpayable",
      "type": "function"
    },
    {
      "inputs": [
        {
          "internalType": "uint256",
          "name": "groupId",
          "type": "uint256"
        },
        {
          "internalType": "uint256",
          "name": "identityCommitment",
          "type": "uint256"
        },
        {
          "internalType": "uint256",
          "name": "newIdentityCommitment",
          "type": "uint256"
        },
        {
          "internalType": "uint256[]",
          "name": "proofSiblings",
          "type": "uint256[]"
        },
        {
          "internalType": "uint8[]",
          "name": "proofPathIndices",
          "type": "uint8[]"
        }
      ],
      "name": "updateMember",
      "outputs": [],
      "stateMutability": "nonpayable",
      "type": "function"
    },
    {
      "inputs": [],
      "name": "verifier",
      "outputs": [
        {
          "internalType": "contract ISemaphoreVerifier",
          "name": "",
          "type": "address"
        }
      ],
      "stateMutability": "view",
      "type": "function"
    },
    {
      "inputs": [],
      "name": "voteAdmin",
      "outputs": [
        {
          "internalType": "address",
          "name": "",
          "type": "address"
        }
      ],
      "stateMutability": "view",
      "type": "function"
    }
  ],
  "bytecode": "0x60806040523480156200001157600080fd5b50604051620028a3380380620028a3833981810160405281019062000037919062000246565b620000576200004b6200016360201b60201c565b6200016b60201b60201c565b81600160006101000a81548173ffffffffffffffffffffffffffffffffffffffff021916908373ffffffffffffffffffffffffffffffffffffffff16021790555080600260006101000a81548173ffffffffffffffffffffffffffffffffffffffff021916908373ffffffffffffffffffffffffffffffffffffffff16021790555033600560006101000a81548173ffffffffffffffffffffffffffffffffffffffff021916908373ffffffffffffffffffffffffffffffffffffffff16021790555033600660006101000a81548173ffffffffffffffffffffffffffffffffffffffff021916908373ffffffffffffffffffffffffffffffffffffffff1602179055505050620002d5565b600033905090565b60008060009054906101000a900473ffffffffffffffffffffffffffffffffffffffff169050816000806101000a81548173ffffffffffffffffffffffffffffffffffffffff021916908373ffffffffffffffffffffffffffffffffffffffff1602179055508173ffffffffffffffffffffffffffffffffffffffff168173ffffffffffffffffffffffffffffffffffffffff167f8be0079c531659141344cd1fd0a4f28419497f9722a3daafe3b4186f6b6457e060405160405180910390a35050565b6000815190506200024081620002bb565b92915050565b600080604083850312156200025a57600080fd5b60006200026a858286016200022f565b92505060206200027d858286016200022f565b9150509250929050565b600062000294826200029b565b9050919050565b600073ffffffffffffffffffffffffffffffffffffffff82169050919050565b620002c68162000287565b8114620002d257600080fd5b50565b6125be80620002e56000396000f3fe608060405234801561001057600080fd5b50600436106101215760003560e01c8063882fc557116100ad578063ac2f007411610071578063ac2f0074146102cf578063ebc8620714610302578063ec45622a14610332578063f2fde38b1461034e578063ff9810991461036a57610121565b8063882fc5571461022c5780638ca1b18f146102485780638da5cb5b1461026457806396324bd414610282578063980cb3ac146102b357610121565b806340e39531116100f457806340e395311461019a5780635e2119de146101b8578063715018a6146101d45780637b5d2534146101de57806385c74296146101fc57610121565b80631783efc3146101265780632b7ac3f3146101425780632d2c6332146101605780633a04eefa1461017e575b600080fd5b610140600480360381019061013b91906116b0565b61039a565b005b61014a610520565b6040516101579190611c88565b60405180910390f35b610168610546565b6040516101759190611c07565b60405180910390f35b61019860048036038101906101939190611627565b61056c565b005b6101a2610811565b6040516101af9190611c07565b60405180910390f35b6101d260048036038101906101cd919061179c565b610837565b005b6101dc610afe565b005b6101e6610b12565b6040516101f39190611ca3565b60405180910390f35b610216600480360381019061021191906116b0565b610b38565b6040516102239190611c44565b60405180910390f35b610246600480360381019061024191906115d5565b610b77565b005b610262600480360381019061025d91906115d5565b610bfa565b005b61026c610c7d565b6040516102799190611c07565b60405180910390f35b61029c600480360381019061029791906115fe565b610ca6565b6040516102aa929190611c5f565b60405180910390f35b6102cd60048036038101906102c891906116b0565b610cd7565b005b6102e960048036038101906102e491906115fe565b610e5e565b6040516102f99493929190611cbe565b60405180910390f35b61031c600480360381019061031791906116b0565b610f43565b6040516103299190611c44565b60405180910390f35b61034c600480360381019061034791906116ec565b610f82565b005b610368600480360381019061036391906115d5565b6110b4565b005b610384600480360381019061037f91906115fe565b611138565b6040516103919190611c22565b60405180910390f35b600560009054906101000a900473ffffffffffffffffffffffffffffffffffffffff1673ffffffffffffffffffffffffffffffffffffffff163373ffffffffffffffffffffffffffffffffffffffff161461042a576040517f08c379a000000000000000000000000000000000000000000000000000000000815260040161042190611dca565b60405180910390fd5b6004600083815260200190815260200160002060000160009054906101000a900460ff1661048d576040517f08c379a000000000000000000000000000000000000000000000000000000000815260040161048490611d2a565b60405180910390fd5b600160009054906101000a900473ffffffffffffffffffffffffffffffffffffffff1673ffffffffffffffffffffffffffffffffffffffff16631783efc383836040518363ffffffff1660e01b81526004016104ea929190611eb7565b600060405180830381600087803b15801561050457600080fd5b505af1158015610518573d6000803e3d6000fd5b505050505050565b600260009054906101000a900473ffffffffffffffffffffffffffffffffffffffff1681565b600660009054906101000a900473ffffffffffffffffffffffffffffffffffffffff1681565b6105746112ad565b600084849050116105ba576040517f08c379a00000000000000000000000000000000000000000000000000000000081526004016105b190611d4a565b60405180910390fd5b600060036000878152602001908152602001600020905060006003600088815260200190815260200160002060010180546105f49061222d565b905014610636576040517f08c379a000000000000000000000000000000000000000000000000000000000815260040161062d90611daa565b60405180910390fd5b60008160000160006101000a81548160ff02191690836002811115610684577f4e487b7100000000000000000000000000000000000000000000000000000000600052602160045260246000fd5b0217905550848482600101919061069c9291906113f7565b5060005b838390508110156107cd57600460008585848181106106e8577f4e487b7100000000000000000000000000000000000000000000000000000000600052603260045260246000fd5b90506020020135815260200190815260200160002060000160009054906101000a900460ff1661074d576040517f08c379a000000000000000000000000000000000000000000000000000000000815260040161074490611dea565b60405180910390fd5b600182600301600086868581811061078e577f4e487b7100000000000000000000000000000000000000000000000000000000600052603260045260246000fd5b90506020020135815260200190815260200160002060006101000a81548160ff02191690831515021790555080806107c59061225f565b9150506106a0565b507f65d5ac2bf1bca69566bef1affdfca5bb37b9577fc0b3af4c7c4638225e67b39c86868660405161080193929190611e85565b60405180910390a1505050505050565b600560009054906101000a900473ffffffffffffffffffffffffffffffffffffffff1681565b60028660ff161061087d576040517f08c379a000000000000000000000000000000000000000000000000000000000815260040161087490611e4a565b60405180910390fd5b6108878382610f43565b6108c6576040517f08c379a00000000000000000000000000000000000000000000000000000000081526004016108bd90611d8a565b60405180910390fd5b6108d08385610b38565b15610910576040517f08c379a000000000000000000000000000000000000000000000000000000000815260040161090790611d0a565b60405180910390fd5b600260009054906101000a900473ffffffffffffffffffffffffffffffffffffffff1673ffffffffffffffffffffffffffffffffffffffff16639aca8f2a868689878760046000898152602001908152602001600020600101546040518763ffffffff1660e01b815260040161098b96959493929190611f8a565b60006040518083038186803b1580156109a357600080fd5b505afa1580156109b7573d6000803e3d6000fd5b50505050600160036000858152602001908152602001600020600201600086815260200190815260200160002060006101000a81548160ff02191690831515021790555060008660ff161415610a5c5760016003600085815260200190815260200160002060000160058282829054906101000a900463ffffffff16610a3d91906120bb565b92506101000a81548163ffffffff021916908363ffffffff1602179055505b60018660ff161415610abd5760016003600085815260200190815260200160002060000160018282829054906101000a900463ffffffff16610a9e91906120bb565b92506101000a81548163ffffffff021916908363ffffffff1602179055505b7f5d4760119c8e8650149aac097d38c70515dfce015031561ad115606533e479be8387604051610aee929190611fed565b60405180910390a1505050505050565b610b066112ad565b610b10600061132b565b565b600160009054906101000a900473ffffffffffffffffffffffffffffffffffffffff1681565b600060036000848152602001908152602001600020600201600083815260200190815260200160002060009054906101000a900460ff16905092915050565b610b7f6112ad565b80600560006101000a81548173ffffffffffffffffffffffffffffffffffffffff021916908373ffffffffffffffffffffffffffffffffffffffff1602179055507f6a0a25cdd72eecb90c6b5b7eb1d4522dcd45bf68b28d80e61f123ee5cd3995da81604051610bef9190611c07565b60405180910390a150565b610c026112ad565b80600660006101000a81548173ffffffffffffffffffffffffffffffffffffffff021916908373ffffffffffffffffffffffffffffffffffffffff1602179055507fb768bf1496eb252752668611d1b0c2e024539e90ad36ea0f46178c840af2d13781604051610c729190611c07565b60405180910390a150565b60008060009054906101000a900473ffffffffffffffffffffffffffffffffffffffff16905090565b60046020528060005260406000206000915090508060000160009054906101000a900460ff16908060010154905082565b610cdf6112ad565b6004600083815260200190815260200160002060000160009054906101000a900460ff1615610d43576040517f08c379a0000000000000000000000000000000000000000000000000000000008152600401610d3a90611e0a565b60405180910390fd5b60016004600084815260200190815260200160002060000160006101000a81548160ff021916908315150217905550806004600084815260200190815260200160002060010181905550600160009054906101000a900473ffffffffffffffffffffffffffffffffffffffff1673ffffffffffffffffffffffffffffffffffffffff166365e54f8383833062a61d0a6040518563ffffffff1660e01b8152600401610df19493929190611ee0565b600060405180830381600087803b158015610e0b57600080fd5b505af1158015610e1f573d6000803e3d6000fd5b505050507ff0adfb94eab6daf835deb69c5738fe636150c3dfd08094a76f39b963dc8cb05a82604051610e529190611e6a565b60405180910390a15050565b60036020528060005260406000206000915090508060000160009054906101000a900460ff16908060000160019054906101000a900463ffffffff16908060000160059054906101000a900463ffffffff1690806001018054610ec09061222d565b80601f0160208091040260200160405190810160405280929190818152602001828054610eec9061222d565b8015610f395780601f10610f0e57610100808354040283529160200191610f39565b820191906000526020600020905b815481529060010190602001808311610f1c57829003601f168201915b5050505050905084565b600060036000848152602001908152602001600020600301600083815260200190815260200160002060009054906101000a900460ff16905092915050565b600560009054906101000a900473ffffffffffffffffffffffffffffffffffffffff1673ffffffffffffffffffffffffffffffffffffffff163373ffffffffffffffffffffffffffffffffffffffff1614611012576040517f08c379a000000000000000000000000000000000000000000000000000000000815260040161100990611dca565b60405180910390fd5b600160009054906101000a900473ffffffffffffffffffffffffffffffffffffffff1673ffffffffffffffffffffffffffffffffffffffff1663ec45622a888888888888886040518863ffffffff1660e01b81526004016110799796959493929190611f25565b600060405180830381600087803b15801561109357600080fd5b505af11580156110a7573d6000803e3d6000fd5b5050505050505050505050565b6110bc6112ad565b600073ffffffffffffffffffffffffffffffffffffffff168173ffffffffffffffffffffffffffffffffffffffff16141561112c576040517f08c379a000000000000000000000000000000000000000000000000000000000815260040161112390611d6a565b60405180910390fd5b6111358161132b565b50565b60606000600267ffffffffffffffff81111561117d577f4e487b7100000000000000000000000000000000000000000000000000000000600052604160045260246000fd5b6040519080825280602002602001820160405280156111ab5781602001602082028036833780820191505090505b5090506003600084815260200190815260200160002060000160019054906101000a900463ffffffff168160008151811061120f577f4e487b7100000000000000000000000000000000000000000000000000000000600052603260045260246000fd5b602002602001019063ffffffff16908163ffffffff16815250506003600084815260200190815260200160002060000160059054906101000a900463ffffffff168160018151811061128a577f4e487b7100000000000000000000000000000000000000000000000000000000600052603260045260246000fd5b602002602001019063ffffffff16908163ffffffff168152505080915050919050565b6112b56113ef565b73ffffffffffffffffffffffffffffffffffffffff166112d3610c7d565b73ffffffffffffffffffffffffffffffffffffffff1614611329576040517f08c379a000000000000000000000000000000000000000000000000000000000815260040161132090611e2a565b60405180910390fd5b565b60008060009054906101000a900473ffffffffffffffffffffffffffffffffffffffff169050816000806101000a81548173ffffffffffffffffffffffffffffffffffffffff021916908373ffffffffffffffffffffffffffffffffffffffff1602179055508173ffffffffffffffffffffffffffffffffffffffff168173ffffffffffffffffffffffffffffffffffffffff167f8be0079c531659141344cd1fd0a4f28419497f9722a3daafe3b4186f6b6457e060405160405180910390a35050565b600033905090565b8280546114039061222d565b90600052602060002090601f016020900481019282611425576000855561146c565b82601f1061143e57803560ff191683800117855561146c565b8280016001018555821561146c579182015b8281111561146b578235825591602001919060010190611450565b5b509050611479919061147d565b5090565b5b8082111561149657600081600090555060010161147e565b5090565b6000813590506114a981612543565b92915050565b6000819050826020600802820111156114c757600080fd5b92915050565b60008083601f8401126114df57600080fd5b8235905067ffffffffffffffff8111156114f857600080fd5b60208301915083602082028301111561151057600080fd5b9250929050565b60008083601f84011261152957600080fd5b8235905067ffffffffffffffff81111561154257600080fd5b60208301915083602082028301111561155a57600080fd5b9250929050565b60008083601f84011261157357600080fd5b8235905067ffffffffffffffff81111561158c57600080fd5b6020830191508360018202830111156115a457600080fd5b9250929050565b6000813590506115ba8161255a565b92915050565b6000813590506115cf81612571565b92915050565b6000602082840312156115e757600080fd5b60006115f58482850161149a565b91505092915050565b60006020828403121561161057600080fd5b600061161e848285016115ab565b91505092915050565b60008060008060006060868803121561163f57600080fd5b600061164d888289016115ab565b955050602086013567ffffffffffffffff81111561166a57600080fd5b61167688828901611561565b9450945050604086013567ffffffffffffffff81111561169557600080fd5b6116a1888289016114cd565b92509250509295509295909350565b600080604083850312156116c357600080fd5b60006116d1858286016115ab565b92505060206116e2858286016115ab565b9150509250929050565b600080600080600080600060a0888a03121561170757600080fd5b60006117158a828b016115ab565b97505060206117268a828b016115ab565b96505060406117378a828b016115ab565b955050606088013567ffffffffffffffff81111561175457600080fd5b6117608a828b016114cd565b9450945050608088013567ffffffffffffffff81111561177f57600080fd5b61178b8a828b01611517565b925092505092959891949750929550565b6000806000806000806101a087890312156117b657600080fd5b60006117c489828a016115c0565b96505060206117d589828a016115ab565b95505060406117e689828a016115ab565b94505060606117f789828a016115ab565b935050608061180889828a016114af565b92505061018061181a89828a016115ab565b9150509295509295509295565b60006118338383611bcb565b60208301905092915050565b600061184b8383611bf8565b60208301905092915050565b611860816120f5565b82525050565b61187361010083836121eb565b5050565b60006118838385612060565b93507f07ffffffffffffffffffffffffffffffffffffffffffffffffffffffffffffff8311156118b257600080fd5b6020830292506118c38385846121eb565b82840190509392505050565b60006118da82612030565b6118e48185612071565b93506118ef83612016565b8060005b838110156119205781516119078882611827565b975061191283612046565b9250506001810190506118f3565b5085935050505092915050565b60006119398385612082565b935061194482612026565b8060005b8581101561197d5761195a82846120a4565b611964888261183f565b975061196f83612053565b925050600181019050611948565b5085925050509392505050565b61199381612107565b82525050565b6119a28161216d565b82525050565b6119b181612191565b82525050565b6119c0816121b5565b82525050565b6119cf816121c7565b82525050565b60006119e18385612093565b93506119ee8385846121eb565b6119f783612335565b840190509392505050565b6000611a0d8261203b565b611a178185612093565b9350611a278185602086016121fa565b611a3081612335565b840191505092915050565b6000611a48600e83612093565b9150611a5382612346565b602082019050919050565b6000611a6b601383612093565b9150611a768261236f565b602082019050919050565b6000611a8e601983612093565b9150611a9982612398565b602082019050919050565b6000611ab1602683612093565b9150611abc826123c1565b604082019050919050565b6000611ad4601183612093565b9150611adf82612410565b602082019050919050565b6000611af7601383612093565b9150611b0282612439565b602082019050919050565b6000611b1a600f83612093565b9150611b2582612462565b602082019050919050565b6000611b3d601483612093565b9150611b488261248b565b602082019050919050565b6000611b60601483612093565b9150611b6b826124b4565b602082019050919050565b6000611b83602083612093565b9150611b8e826124dd565b602082019050919050565b6000611ba6600883612093565b9150611bb182612506565b602082019050919050565b611bc581612146565b82525050565b611bd481612150565b82525050565b611be381612150565b82525050565b611bf2816121d9565b82525050565b611c0181612160565b82525050565b6000602082019050611c1c6000830184611857565b92915050565b60006020820190508181036000830152611c3c81846118cf565b905092915050565b6000602082019050611c59600083018461198a565b92915050565b6000604082019050611c74600083018561198a565b611c816020830184611bbc565b9392505050565b6000602082019050611c9d6000830184611999565b92915050565b6000602082019050611cb860008301846119a8565b92915050565b6000608082019050611cd360008301876119b7565b611ce06020830186611bda565b611ced6040830185611bda565b8181036060830152611cff8184611a02565b905095945050505050565b60006020820190508181036000830152611d2381611a3b565b9050919050565b60006020820190508181036000830152611d4381611a5e565b9050919050565b60006020820190508181036000830152611d6381611a81565b9050919050565b60006020820190508181036000830152611d8381611aa4565b9050919050565b60006020820190508181036000830152611da381611ac7565b9050919050565b60006020820190508181036000830152611dc381611aea565b9050919050565b60006020820190508181036000830152611de381611b0d565b9050919050565b60006020820190508181036000830152611e0381611b30565b9050919050565b60006020820190508181036000830152611e2381611b53565b9050919050565b60006020820190508181036000830152611e4381611b76565b9050919050565b60006020820190508181036000830152611e6381611b99565b9050919050565b6000602082019050611e7f6000830184611bbc565b92915050565b6000604082019050611e9a6000830186611bbc565b8181036020830152611ead8184866119d5565b9050949350505050565b6000604082019050611ecc6000830185611bbc565b611ed96020830184611bbc565b9392505050565b6000608082019050611ef56000830187611bbc565b611f026020830186611bbc565b611f0f6040830185611857565b611f1c60608301846119c6565b95945050505050565b600060a082019050611f3a600083018a611bbc565b611f476020830189611bbc565b611f546040830188611bbc565b8181036060830152611f67818688611877565b90508181036080830152611f7c81848661192d565b905098975050505050505050565b60006101a082019050611fa06000830189611bbc565b611fad6020830188611bbc565b611fba6040830187611be9565b611fc76060830186611bbc565b611fd46080830185611866565b611fe2610180830184611bbc565b979650505050505050565b60006040820190506120026000830185611bbc565b61200f6020830184611be9565b9392505050565b6000819050602082019050919050565b6000819050919050565b600081519050919050565b600081519050919050565b6000602082019050919050565b6000602082019050919050565b600082825260208201905092915050565b600082825260208201905092915050565b600082825260208201905092915050565b600082825260208201905092915050565b60006120b360208401846115c0565b905092915050565b60006120c682612150565b91506120d183612150565b92508263ffffffff038211156120ea576120e96122a8565b5b828201905092915050565b600061210082612126565b9050919050565b60008115159050919050565b60008190506121218261252f565b919050565b600073ffffffffffffffffffffffffffffffffffffffff82169050919050565b6000819050919050565b600063ffffffff82169050919050565b600060ff82169050919050565b60006121788261217f565b9050919050565b600061218a82612126565b9050919050565b600061219c826121a3565b9050919050565b60006121ae82612126565b9050919050565b60006121c082612113565b9050919050565b60006121d282612146565b9050919050565b60006121e482612160565b9050919050565b82818337600083830152505050565b60005b838110156122185780820151818401526020810190506121fd565b83811115612227576000848401525b50505050565b6000600282049050600182168061224557607f821691505b6020821081141561225957612258612306565b5b50919050565b600061226a82612146565b91507fffffffffffffffffffffffffffffffffffffffffffffffffffffffffffffffff82141561229d5761229c6122a8565b5b600182019050919050565b7f4e487b7100000000000000000000000000000000000000000000000000000000600052601160045260246000fd5b7f4e487b7100000000000000000000000000000000000000000000000000000000600052602160045260246000fd5b7f4e487b7100000000000000000000000000000000000000000000000000000000600052602260045260246000fd5b6000601f19601f8301169050919050565b7f55736564204e756c6c6966696572000000000000000000000000000000000000600082015250565b7f47726f7570206973206e6f742061637469766500000000000000000000000000600082015250565b7f506f6c6c20746578742063616e6e6f7420626520656d70747900000000000000600082015250565b7f4f776e61626c653a206e6577206f776e657220697320746865207a65726f206160008201527f6464726573730000000000000000000000000000000000000000000000000000602082015250565b7f47726f7570206e6f7420616c6c6f776564000000000000000000000000000000600082015250565b7f506f6c6c20616c72656164792065786973747300000000000000000000000000600082015250565b7f4e6f742067726f75702061646d696e0000000000000000000000000000000000600082015250565b7f47726f757020646f65736e277420657869737473000000000000000000000000600082015250565b7f47726f757020616c726561647920657869737473000000000000000000000000600082015250565b7f4f776e61626c653a2063616c6c6572206973206e6f7420746865206f776e6572600082015250565b7f566f7465203e2031000000000000000000000000000000000000000000000000600082015250565b600381106125405761253f6122d7565b5b50565b61254c816120f5565b811461255757600080fd5b50565b61256381612146565b811461256e57600080fd5b50565b61257a81612160565b811461258557600080fd5b5056fea26469706673582212207be791bce08a38f26d6d02f63164aa9908e7362e730431c4bcd14819c0f575f964736f6c63430008040033",
  "linkReferences": {},
  "deployedLinkReferences": {}
}