{
  "_format": "hh-sol-artifact-1",
  "contractName": "OpinionXpress",
  "sourceName": "contracts/OpinionXpress.sol",
  "abi": [
    {
      "inputs": [
        {
          "internalType": "address",
          "name": "semaphoreAddress",
          "type": "address"
        },
        {
          "internalType": "address",
          "name": "verifierAddress",
          "type": "address"
        }
      ],
      "stateMutability": "nonpayable",
      "type": "constructor"
    },
    {
      "anonymous": false,
      "inputs": [
        {
          "indexed": false,
          "internalType": "address",
          "name": "newAdmin",
          "type": "address"
        }
      ],
      "name": "GroupAdminChanged",
      "type": "event"
    },
    {
      "anonymous": false,
      "inputs": [
        {
          "indexed": false,
          "internalType": "uint256",
          "name": "groupId",
          "type": "uint256"
        },
        {
          "indexed": false,
          "internalType": "uint256",
          "name": "depth",
          "type": "uint256"
        }
      ],
      "name": "GroupCreated",
      "type": "event"
    },
    {
      "anonymous": false,
      "inputs": [
        {
          "indexed": true,
          "internalType": "address",
          "name": "previousOwner",
          "type": "address"
        },
        {
          "indexed": true,
          "internalType": "address",
          "name": "newOwner",
          "type": "address"
        }
      ],
      "name": "OwnershipTransferred",
      "type": "event"
    },
    {
      "anonymous": false,
      "inputs": [
        {
          "indexed": false,
          "internalType": "uint256",
          "name": "pollId",
          "type": "uint256"
        },
        {
          "indexed": false,
          "internalType": "string",
          "name": "text",
          "type": "string"
        }
      ],
      "name": "PollCreated",
      "type": "event"
    },
    {
      "anonymous": false,
      "inputs": [
        {
          "indexed": false,
          "internalType": "address",
          "name": "newAdmin",
          "type": "address"
        }
      ],
      "name": "VoteAdminChanged",
      "type": "event"
    },
    {
      "anonymous": false,
      "inputs": [
        {
          "indexed": false,
          "internalType": "uint256",
          "name": "pollId",
          "type": "uint256"
        },
        {
          "indexed": false,
          "internalType": "uint256",
          "name": "vote",
          "type": "uint256"
        }
      ],
      "name": "VoteCasted",
      "type": "event"
    },
    {
      "inputs": [
        {
          "internalType": "uint256",
          "name": "groupId",
          "type": "uint256"
        },
        {
          "internalType": "uint256",
          "name": "identityCommitment",
          "type": "uint256"
        }
      ],
      "name": "addMember",
      "outputs": [],
      "stateMutability": "nonpayable",
      "type": "function"
    },
    {
      "inputs": [
        {
          "internalType": "uint8",
          "name": "vote",
          "type": "uint8"
        },
        {
          "internalType": "uint256",
          "name": "merkleTreeRoot",
          "type": "uint256"
        },
        {
          "internalType": "uint256",
          "name": "nullifierHash",
          "type": "uint256"
        },
        {
          "internalType": "uint256",
          "name": "pollId",
          "type": "uint256"
        },
        {
          "internalType": "uint256[8]",
          "name": "proof",
          "type": "uint256[8]"
        },
        {
          "internalType": "uint256",
          "name": "groupId",
          "type": "uint256"
        }
      ],
      "name": "castVote",
      "outputs": [],
      "stateMutability": "nonpayable",
      "type": "function"
    },
    {
      "inputs": [
        {
          "internalType": "address",
          "name": "newAdmin",
          "type": "address"
        }
      ],
      "name": "changeGroupAdmin",
      "outputs": [],
      "stateMutability": "nonpayable",
      "type": "function"
    },
    {
      "inputs": [
        {
          "internalType": "address",
          "name": "newAdmin",
          "type": "address"
        }
      ],
      "name": "changeVoteAdmin",
      "outputs": [],
      "stateMutability": "nonpayable",
      "type": "function"
    },
    {
      "inputs": [
        {
          "internalType": "uint256",
          "name": "groupId",
          "type": "uint256"
        },
        {
          "internalType": "uint256",
          "name": "depth",
          "type": "uint256"
        }
      ],
      "name": "createGroup",
      "outputs": [],
      "stateMutability": "nonpayable",
      "type": "function"
    },
    {
      "inputs": [
        {
          "internalType": "uint256",
          "name": "pollId",
          "type": "uint256"
        },
        {
          "internalType": "string",
          "name": "_text",
          "type": "string"
        },
        {
          "internalType": "uint256[]",
          "name": "groupIds",
          "type": "uint256[]"
        }
      ],
      "name": "createPoll",
      "outputs": [],
      "stateMutability": "nonpayable",
      "type": "function"
    },
    {
      "inputs": [
        {
          "internalType": "uint256",
          "name": "pollId",
          "type": "uint256"
        }
      ],
      "name": "getVotes",
      "outputs": [
        {
          "internalType": "uint32[]",
          "name": "",
          "type": "uint32[]"
        }
      ],
      "stateMutability": "view",
      "type": "function"
    },
    {
      "inputs": [],
      "name": "groupAdmin",
      "outputs": [
        {
          "internalType": "address",
          "name": "",
          "type": "address"
        }
      ],
      "stateMutability": "view",
      "type": "function"
    },
    {
      "inputs": [
        {
          "internalType": "uint256",
          "name": "",
          "type": "uint256"
        }
      ],
      "name": "groups",
      "outputs": [
        {
          "internalType": "bool",
          "name": "isActive",
          "type": "bool"
        },
        {
          "internalType": "uint256",
          "name": "depth",
          "type": "uint256"
        }
      ],
      "stateMutability": "view",
      "type": "function"
    },
    {
      "inputs": [
        {
          "internalType": "uint256",
          "name": "pollId",
          "type": "uint256"
        },
        {
          "internalType": "uint256",
          "name": "groupId",
          "type": "uint256"
        }
      ],
      "name": "isGroupAllowed",
      "outputs": [
        {
          "internalType": "bool",
          "name": "",
          "type": "bool"
        }
      ],
      "stateMutability": "view",
      "type": "function"
    },
    {
      "inputs": [
        {
          "internalType": "uint256",
          "name": "pollId",
          "type": "uint256"
        },
        {
          "internalType": "uint256",
          "name": "nullifierHash",
          "type": "uint256"
        }
      ],
      "name": "isNullifierUsed",
      "outputs": [
        {
          "internalType": "bool",
          "name": "",
          "type": "bool"
        }
      ],
      "stateMutability": "view",
      "type": "function"
    },
    {
      "inputs": [],
      "name": "owner",
      "outputs": [
        {
          "internalType": "address",
          "name": "",
          "type": "address"
        }
      ],
      "stateMutability": "view",
      "type": "function"
    },
    {
      "inputs": [
        {
          "internalType": "uint256",
          "name": "",
          "type": "uint256"
        }
      ],
      "name": "polls",
      "outputs": [
        {
          "internalType": "enum OpinionXpress.PollState",
          "name": "state",
          "type": "uint8"
        },
        {
          "internalType": "uint32",
          "name": "yesCounter",
          "type": "uint32"
        },
        {
          "internalType": "uint32",
          "name": "noCounter",
          "type": "uint32"
        },
        {
          "internalType": "string",
          "name": "text",
          "type": "string"
        }
      ],
      "stateMutability": "view",
      "type": "function"
    },
    {
      "inputs": [],
      "name": "renounceOwnership",
      "outputs": [],
      "stateMutability": "nonpayable",
      "type": "function"
    },
    {
      "inputs": [],
      "name": "semaphore",
      "outputs": [
        {
          "internalType": "contract ISemaphore",
          "name": "",
          "type": "address"
        }
      ],
      "stateMutability": "view",
      "type": "function"
    },
    {
      "inputs": [
        {
          "internalType": "address",
          "name": "newOwner",
          "type": "address"
        }
      ],
      "name": "transferOwnership",
      "outputs": [],
      "stateMutability": "nonpayable",
      "type": "function"
    },
    {
      "inputs": [
        {
          "internalType": "uint256",
          "name": "groupId",
          "type": "uint256"
        },
        {
          "internalType": "uint256",
          "name": "identityCommitment",
          "type": "uint256"
        },
        {
          "internalType": "uint256",
          "name": "newIdentityCommitment",
          "type": "uint256"
        },
        {
          "internalType": "uint256[]",
          "name": "proofSiblings",
          "type": "uint256[]"
        },
        {
          "internalType": "uint8[]",
          "name": "proofPathIndices",
          "type": "uint8[]"
        }
      ],
      "name": "updateMember",
      "outputs": [],
      "stateMutability": "nonpayable",
      "type": "function"
    },
    {
      "inputs": [],
      "name": "verifier",
      "outputs": [
        {
          "internalType": "contract ISemaphoreVerifier",
          "name": "",
          "type": "address"
        }
      ],
      "stateMutability": "view",
      "type": "function"
    },
    {
      "inputs": [],
      "name": "voteAdmin",
      "outputs": [
        {
          "internalType": "address",
          "name": "",
          "type": "address"
        }
      ],
      "stateMutability": "view",
      "type": "function"
    }
  ],
  "bytecode": "0x60806040523480156200001157600080fd5b506040516200288a3803806200288a833981810160405281019062000037919062000246565b620000576200004b6200016360201b60201c565b6200016b60201b60201c565b81600160006101000a81548173ffffffffffffffffffffffffffffffffffffffff021916908373ffffffffffffffffffffffffffffffffffffffff16021790555080600260006101000a81548173ffffffffffffffffffffffffffffffffffffffff021916908373ffffffffffffffffffffffffffffffffffffffff16021790555033600560006101000a81548173ffffffffffffffffffffffffffffffffffffffff021916908373ffffffffffffffffffffffffffffffffffffffff16021790555033600660006101000a81548173ffffffffffffffffffffffffffffffffffffffff021916908373ffffffffffffffffffffffffffffffffffffffff1602179055505050620002d5565b600033905090565b60008060009054906101000a900473ffffffffffffffffffffffffffffffffffffffff169050816000806101000a81548173ffffffffffffffffffffffffffffffffffffffff021916908373ffffffffffffffffffffffffffffffffffffffff1602179055508173ffffffffffffffffffffffffffffffffffffffff168173ffffffffffffffffffffffffffffffffffffffff167f8be0079c531659141344cd1fd0a4f28419497f9722a3daafe3b4186f6b6457e060405160405180910390a35050565b6000815190506200024081620002bb565b92915050565b600080604083850312156200025a57600080fd5b60006200026a858286016200022f565b92505060206200027d858286016200022f565b9150509250929050565b600062000294826200029b565b9050919050565b600073ffffffffffffffffffffffffffffffffffffffff82169050919050565b620002c68162000287565b8114620002d257600080fd5b50565b6125a580620002e56000396000f3fe608060405234801561001057600080fd5b50600436106101215760003560e01c8063882fc557116100ad578063ac2f007411610071578063ac2f0074146102cf578063ebc8620714610302578063ec45622a14610332578063f2fde38b1461034e578063ff9810991461036a57610121565b8063882fc5571461022c5780638ca1b18f146102485780638da5cb5b1461026457806396324bd414610282578063980cb3ac146102b357610121565b806340e39531116100f457806340e395311461019a5780635e2119de146101b8578063715018a6146101d45780637b5d2534146101de57806385c74296146101fc57610121565b80631783efc3146101265780632b7ac3f3146101425780632d2c6332146101605780633a04eefa1461017e575b600080fd5b610140600480360381019061013b91906116b2565b61039a565b005b61014a610520565b6040516101579190611c8a565b60405180910390f35b610168610546565b6040516101759190611c09565b60405180910390f35b61019860048036038101906101939190611629565b61056c565b005b6101a2610811565b6040516101af9190611c09565b60405180910390f35b6101d260048036038101906101cd919061179e565b610837565b005b6101dc610afe565b005b6101e6610b12565b6040516101f39190611ca5565b60405180910390f35b610216600480360381019061021191906116b2565b610b38565b6040516102239190611c46565b60405180910390f35b610246600480360381019061024191906115d7565b610b77565b005b610262600480360381019061025d91906115d7565b610bfa565b005b61026c610c7d565b6040516102799190611c09565b60405180910390f35b61029c60048036038101906102979190611600565b610ca6565b6040516102aa929190611c61565b60405180910390f35b6102cd60048036038101906102c891906116b2565b610cd7565b005b6102e960048036038101906102e49190611600565b610e60565b6040516102f99493929190611cc0565b60405180910390f35b61031c600480360381019061031791906116b2565b610f45565b6040516103299190611c46565b60405180910390f35b61034c600480360381019061034791906116ee565b610f84565b005b610368600480360381019061036391906115d7565b6110b6565b005b610384600480360381019061037f9190611600565b61113a565b6040516103919190611c24565b60405180910390f35b600560009054906101000a900473ffffffffffffffffffffffffffffffffffffffff1673ffffffffffffffffffffffffffffffffffffffff163373ffffffffffffffffffffffffffffffffffffffff161461042a576040517f08c379a000000000000000000000000000000000000000000000000000000000815260040161042190611dcc565b60405180910390fd5b6004600083815260200190815260200160002060000160009054906101000a900460ff1661048d576040517f08c379a000000000000000000000000000000000000000000000000000000000815260040161048490611d2c565b60405180910390fd5b600160009054906101000a900473ffffffffffffffffffffffffffffffffffffffff1673ffffffffffffffffffffffffffffffffffffffff16631783efc383836040518363ffffffff1660e01b81526004016104ea929190611e9e565b600060405180830381600087803b15801561050457600080fd5b505af1158015610518573d6000803e3d6000fd5b505050505050565b600260009054906101000a900473ffffffffffffffffffffffffffffffffffffffff1681565b600660009054906101000a900473ffffffffffffffffffffffffffffffffffffffff1681565b6105746112af565b600084849050116105ba576040517f08c379a00000000000000000000000000000000000000000000000000000000081526004016105b190611d4c565b60405180910390fd5b600060036000878152602001908152602001600020905060006003600088815260200190815260200160002060010180546105f490612214565b905014610636576040517f08c379a000000000000000000000000000000000000000000000000000000000815260040161062d90611dac565b60405180910390fd5b60008160000160006101000a81548160ff02191690836002811115610684577f4e487b7100000000000000000000000000000000000000000000000000000000600052602160045260246000fd5b0217905550848482600101919061069c9291906113f9565b5060005b838390508110156107cd57600460008585848181106106e8577f4e487b7100000000000000000000000000000000000000000000000000000000600052603260045260246000fd5b90506020020135815260200190815260200160002060000160009054906101000a900460ff1661074d576040517f08c379a000000000000000000000000000000000000000000000000000000000815260040161074490611dec565b60405180910390fd5b600182600301600086868581811061078e577f4e487b7100000000000000000000000000000000000000000000000000000000600052603260045260246000fd5b90506020020135815260200190815260200160002060006101000a81548160ff02191690831515021790555080806107c590612246565b9150506106a0565b507f65d5ac2bf1bca69566bef1affdfca5bb37b9577fc0b3af4c7c4638225e67b39c86868660405161080193929190611e6c565b60405180910390a1505050505050565b600560009054906101000a900473ffffffffffffffffffffffffffffffffffffffff1681565b60028660ff161061087d576040517f08c379a000000000000000000000000000000000000000000000000000000000815260040161087490611e4c565b60405180910390fd5b6108878382610f45565b6108c6576040517f08c379a00000000000000000000000000000000000000000000000000000000081526004016108bd90611d8c565b60405180910390fd5b6108d08385610b38565b15610910576040517f08c379a000000000000000000000000000000000000000000000000000000000815260040161090790611d0c565b60405180910390fd5b600260009054906101000a900473ffffffffffffffffffffffffffffffffffffffff1673ffffffffffffffffffffffffffffffffffffffff16639aca8f2a868689878760046000898152602001908152602001600020600101546040518763ffffffff1660e01b815260040161098b96959493929190611f71565b60006040518083038186803b1580156109a357600080fd5b505afa1580156109b7573d6000803e3d6000fd5b50505050600160036000858152602001908152602001600020600201600086815260200190815260200160002060006101000a81548160ff02191690831515021790555060008660ff161415610a5c5760016003600085815260200190815260200160002060000160058282829054906101000a900463ffffffff16610a3d91906120a2565b92506101000a81548163ffffffff021916908363ffffffff1602179055505b60018660ff161415610abd5760016003600085815260200190815260200160002060000160018282829054906101000a900463ffffffff16610a9e91906120a2565b92506101000a81548163ffffffff021916908363ffffffff1602179055505b7f5d4760119c8e8650149aac097d38c70515dfce015031561ad115606533e479be8387604051610aee929190611fd4565b60405180910390a1505050505050565b610b066112af565b610b10600061132d565b565b600160009054906101000a900473ffffffffffffffffffffffffffffffffffffffff1681565b600060036000848152602001908152602001600020600201600083815260200190815260200160002060009054906101000a900460ff16905092915050565b610b7f6112af565b80600560006101000a81548173ffffffffffffffffffffffffffffffffffffffff021916908373ffffffffffffffffffffffffffffffffffffffff1602179055507f6a0a25cdd72eecb90c6b5b7eb1d4522dcd45bf68b28d80e61f123ee5cd3995da81604051610bef9190611c09565b60405180910390a150565b610c026112af565b80600660006101000a81548173ffffffffffffffffffffffffffffffffffffffff021916908373ffffffffffffffffffffffffffffffffffffffff1602179055507fb768bf1496eb252752668611d1b0c2e024539e90ad36ea0f46178c840af2d13781604051610c729190611c09565b60405180910390a150565b60008060009054906101000a900473ffffffffffffffffffffffffffffffffffffffff16905090565b60046020528060005260406000206000915090508060000160009054906101000a900460ff16908060010154905082565b610cdf6112af565b6004600083815260200190815260200160002060000160009054906101000a900460ff1615610d43576040517f08c379a0000000000000000000000000000000000000000000000000000000008152600401610d3a90611e0c565b60405180910390fd5b60016004600084815260200190815260200160002060000160006101000a81548160ff021916908315150217905550806004600084815260200190815260200160002060010181905550600160009054906101000a900473ffffffffffffffffffffffffffffffffffffffff1673ffffffffffffffffffffffffffffffffffffffff166365e54f8383833062a61d0a6040518563ffffffff1660e01b8152600401610df19493929190611ec7565b600060405180830381600087803b158015610e0b57600080fd5b505af1158015610e1f573d6000803e3d6000fd5b505050507f45c2f3d170bd0d6d1e4ac999b02ef5349552b6a99826397251a84fc1a49a9e588282604051610e54929190611e9e565b60405180910390a15050565b60036020528060005260406000206000915090508060000160009054906101000a900460ff16908060000160019054906101000a900463ffffffff16908060000160059054906101000a900463ffffffff1690806001018054610ec290612214565b80601f0160208091040260200160405190810160405280929190818152602001828054610eee90612214565b8015610f3b5780601f10610f1057610100808354040283529160200191610f3b565b820191906000526020600020905b815481529060010190602001808311610f1e57829003601f168201915b5050505050905084565b600060036000848152602001908152602001600020600301600083815260200190815260200160002060009054906101000a900460ff16905092915050565b600560009054906101000a900473ffffffffffffffffffffffffffffffffffffffff1673ffffffffffffffffffffffffffffffffffffffff163373ffffffffffffffffffffffffffffffffffffffff1614611014576040517f08c379a000000000000000000000000000000000000000000000000000000000815260040161100b90611dcc565b60405180910390fd5b600160009054906101000a900473ffffffffffffffffffffffffffffffffffffffff1673ffffffffffffffffffffffffffffffffffffffff1663ec45622a888888888888886040518863ffffffff1660e01b815260040161107b9796959493929190611f0c565b600060405180830381600087803b15801561109557600080fd5b505af11580156110a9573d6000803e3d6000fd5b5050505050505050505050565b6110be6112af565b600073ffffffffffffffffffffffffffffffffffffffff168173ffffffffffffffffffffffffffffffffffffffff16141561112e576040517f08c379a000000000000000000000000000000000000000000000000000000000815260040161112590611d6c565b60405180910390fd5b6111378161132d565b50565b60606000600267ffffffffffffffff81111561117f577f4e487b7100000000000000000000000000000000000000000000000000000000600052604160045260246000fd5b6040519080825280602002602001820160405280156111ad5781602001602082028036833780820191505090505b5090506003600084815260200190815260200160002060000160019054906101000a900463ffffffff1681600081518110611211577f4e487b7100000000000000000000000000000000000000000000000000000000600052603260045260246000fd5b602002602001019063ffffffff16908163ffffffff16815250506003600084815260200190815260200160002060000160059054906101000a900463ffffffff168160018151811061128c577f4e487b7100000000000000000000000000000000000000000000000000000000600052603260045260246000fd5b602002602001019063ffffffff16908163ffffffff168152505080915050919050565b6112b76113f1565b73ffffffffffffffffffffffffffffffffffffffff166112d5610c7d565b73ffffffffffffffffffffffffffffffffffffffff161461132b576040517f08c379a000000000000000000000000000000000000000000000000000000000815260040161132290611e2c565b60405180910390fd5b565b60008060009054906101000a900473ffffffffffffffffffffffffffffffffffffffff169050816000806101000a81548173ffffffffffffffffffffffffffffffffffffffff021916908373ffffffffffffffffffffffffffffffffffffffff1602179055508173ffffffffffffffffffffffffffffffffffffffff168173ffffffffffffffffffffffffffffffffffffffff167f8be0079c531659141344cd1fd0a4f28419497f9722a3daafe3b4186f6b6457e060405160405180910390a35050565b600033905090565b82805461140590612214565b90600052602060002090601f016020900481019282611427576000855561146e565b82601f1061144057803560ff191683800117855561146e565b8280016001018555821561146e579182015b8281111561146d578235825591602001919060010190611452565b5b50905061147b919061147f565b5090565b5b80821115611498576000816000905550600101611480565b5090565b6000813590506114ab8161252a565b92915050565b6000819050826020600802820111156114c957600080fd5b92915050565b60008083601f8401126114e157600080fd5b8235905067ffffffffffffffff8111156114fa57600080fd5b60208301915083602082028301111561151257600080fd5b9250929050565b60008083601f84011261152b57600080fd5b8235905067ffffffffffffffff81111561154457600080fd5b60208301915083602082028301111561155c57600080fd5b9250929050565b60008083601f84011261157557600080fd5b8235905067ffffffffffffffff81111561158e57600080fd5b6020830191508360018202830111156115a657600080fd5b9250929050565b6000813590506115bc81612541565b92915050565b6000813590506115d181612558565b92915050565b6000602082840312156115e957600080fd5b60006115f78482850161149c565b91505092915050565b60006020828403121561161257600080fd5b6000611620848285016115ad565b91505092915050565b60008060008060006060868803121561164157600080fd5b600061164f888289016115ad565b955050602086013567ffffffffffffffff81111561166c57600080fd5b61167888828901611563565b9450945050604086013567ffffffffffffffff81111561169757600080fd5b6116a3888289016114cf565b92509250509295509295909350565b600080604083850312156116c557600080fd5b60006116d3858286016115ad565b92505060206116e4858286016115ad565b9150509250929050565b600080600080600080600060a0888a03121561170957600080fd5b60006117178a828b016115ad565b97505060206117288a828b016115ad565b96505060406117398a828b016115ad565b955050606088013567ffffffffffffffff81111561175657600080fd5b6117628a828b016114cf565b9450945050608088013567ffffffffffffffff81111561178157600080fd5b61178d8a828b01611519565b925092505092959891949750929550565b6000806000806000806101a087890312156117b857600080fd5b60006117c689828a016115c2565b96505060206117d789828a016115ad565b95505060406117e889828a016115ad565b94505060606117f989828a016115ad565b935050608061180a89828a016114b1565b92505061018061181c89828a016115ad565b9150509295509295509295565b60006118358383611bcd565b60208301905092915050565b600061184d8383611bfa565b60208301905092915050565b611862816120dc565b82525050565b61187561010083836121d2565b5050565b60006118858385612047565b93507f07ffffffffffffffffffffffffffffffffffffffffffffffffffffffffffffff8311156118b457600080fd5b6020830292506118c58385846121d2565b82840190509392505050565b60006118dc82612017565b6118e68185612058565b93506118f183611ffd565b8060005b838110156119225781516119098882611829565b97506119148361202d565b9250506001810190506118f5565b5085935050505092915050565b600061193b8385612069565b93506119468261200d565b8060005b8581101561197f5761195c828461208b565b6119668882611841565b97506119718361203a565b92505060018101905061194a565b5085925050509392505050565b611995816120ee565b82525050565b6119a481612154565b82525050565b6119b381612178565b82525050565b6119c28161219c565b82525050565b6119d1816121ae565b82525050565b60006119e3838561207a565b93506119f08385846121d2565b6119f98361231c565b840190509392505050565b6000611a0f82612022565b611a19818561207a565b9350611a298185602086016121e1565b611a328161231c565b840191505092915050565b6000611a4a600e8361207a565b9150611a558261232d565b602082019050919050565b6000611a6d60138361207a565b9150611a7882612356565b602082019050919050565b6000611a9060198361207a565b9150611a9b8261237f565b602082019050919050565b6000611ab360268361207a565b9150611abe826123a8565b604082019050919050565b6000611ad660118361207a565b9150611ae1826123f7565b602082019050919050565b6000611af960138361207a565b9150611b0482612420565b602082019050919050565b6000611b1c600f8361207a565b9150611b2782612449565b602082019050919050565b6000611b3f60148361207a565b9150611b4a82612472565b602082019050919050565b6000611b6260148361207a565b9150611b6d8261249b565b602082019050919050565b6000611b8560208361207a565b9150611b90826124c4565b602082019050919050565b6000611ba860088361207a565b9150611bb3826124ed565b602082019050919050565b611bc78161212d565b82525050565b611bd681612137565b82525050565b611be581612137565b82525050565b611bf4816121c0565b82525050565b611c0381612147565b82525050565b6000602082019050611c1e6000830184611859565b92915050565b60006020820190508181036000830152611c3e81846118d1565b905092915050565b6000602082019050611c5b600083018461198c565b92915050565b6000604082019050611c76600083018561198c565b611c836020830184611bbe565b9392505050565b6000602082019050611c9f600083018461199b565b92915050565b6000602082019050611cba60008301846119aa565b92915050565b6000608082019050611cd560008301876119b9565b611ce26020830186611bdc565b611cef6040830185611bdc565b8181036060830152611d018184611a04565b905095945050505050565b60006020820190508181036000830152611d2581611a3d565b9050919050565b60006020820190508181036000830152611d4581611a60565b9050919050565b60006020820190508181036000830152611d6581611a83565b9050919050565b60006020820190508181036000830152611d8581611aa6565b9050919050565b60006020820190508181036000830152611da581611ac9565b9050919050565b60006020820190508181036000830152611dc581611aec565b9050919050565b60006020820190508181036000830152611de581611b0f565b9050919050565b60006020820190508181036000830152611e0581611b32565b9050919050565b60006020820190508181036000830152611e2581611b55565b9050919050565b60006020820190508181036000830152611e4581611b78565b9050919050565b60006020820190508181036000830152611e6581611b9b565b9050919050565b6000604082019050611e816000830186611bbe565b8181036020830152611e948184866119d7565b9050949350505050565b6000604082019050611eb36000830185611bbe565b611ec06020830184611bbe565b9392505050565b6000608082019050611edc6000830187611bbe565b611ee96020830186611bbe565b611ef66040830185611859565b611f0360608301846119c8565b95945050505050565b600060a082019050611f21600083018a611bbe565b611f2e6020830189611bbe565b611f3b6040830188611bbe565b8181036060830152611f4e818688611879565b90508181036080830152611f6381848661192f565b905098975050505050505050565b60006101a082019050611f876000830189611bbe565b611f946020830188611bbe565b611fa16040830187611beb565b611fae6060830186611bbe565b611fbb6080830185611868565b611fc9610180830184611bbe565b979650505050505050565b6000604082019050611fe96000830185611bbe565b611ff66020830184611beb565b9392505050565b6000819050602082019050919050565b6000819050919050565b600081519050919050565b600081519050919050565b6000602082019050919050565b6000602082019050919050565b600082825260208201905092915050565b600082825260208201905092915050565b600082825260208201905092915050565b600082825260208201905092915050565b600061209a60208401846115c2565b905092915050565b60006120ad82612137565b91506120b883612137565b92508263ffffffff038211156120d1576120d061228f565b5b828201905092915050565b60006120e78261210d565b9050919050565b60008115159050919050565b600081905061210882612516565b919050565b600073ffffffffffffffffffffffffffffffffffffffff82169050919050565b6000819050919050565b600063ffffffff82169050919050565b600060ff82169050919050565b600061215f82612166565b9050919050565b60006121718261210d565b9050919050565b60006121838261218a565b9050919050565b60006121958261210d565b9050919050565b60006121a7826120fa565b9050919050565b60006121b98261212d565b9050919050565b60006121cb82612147565b9050919050565b82818337600083830152505050565b60005b838110156121ff5780820151818401526020810190506121e4565b8381111561220e576000848401525b50505050565b6000600282049050600182168061222c57607f821691505b602082108114156122405761223f6122ed565b5b50919050565b60006122518261212d565b91507fffffffffffffffffffffffffffffffffffffffffffffffffffffffffffffffff8214156122845761228361228f565b5b600182019050919050565b7f4e487b7100000000000000000000000000000000000000000000000000000000600052601160045260246000fd5b7f4e487b7100000000000000000000000000000000000000000000000000000000600052602160045260246000fd5b7f4e487b7100000000000000000000000000000000000000000000000000000000600052602260045260246000fd5b6000601f19601f8301169050919050565b7f55736564204e756c6c6966696572000000000000000000000000000000000000600082015250565b7f47726f7570206973206e6f742061637469766500000000000000000000000000600082015250565b7f506f6c6c20746578742063616e6e6f7420626520656d70747900000000000000600082015250565b7f4f776e61626c653a206e6577206f776e657220697320746865207a65726f206160008201527f6464726573730000000000000000000000000000000000000000000000000000602082015250565b7f47726f7570206e6f7420616c6c6f776564000000000000000000000000000000600082015250565b7f506f6c6c20616c72656164792065786973747300000000000000000000000000600082015250565b7f4e6f742067726f75702061646d696e0000000000000000000000000000000000600082015250565b7f47726f757020646f65736e277420657869737473000000000000000000000000600082015250565b7f47726f757020616c726561647920657869737473000000000000000000000000600082015250565b7f4f776e61626c653a2063616c6c6572206973206e6f7420746865206f776e6572600082015250565b7f566f7465203e2031000000000000000000000000000000000000000000000000600082015250565b60038110612527576125266122be565b5b50565b612533816120dc565b811461253e57600080fd5b50565b61254a8161212d565b811461255557600080fd5b50565b61256181612147565b811461256c57600080fd5b5056fea264697066735822122060c8cb7632af3a2abe9482a43deb2335f4ea0099daabce5593b72b86078a5e0a64736f6c63430008040033",
  "linkReferences": {},
  "deployedLinkReferences": {}
}