{
  "_format": "hh-sol-artifact-1",
  "contractName": "OpinionXpress",
  "sourceName": "contracts/OpinionXpress.sol",
  "abi": [
    {
      "inputs": [
        {
          "internalType": "address",
          "name": "semaphoreAddress",
          "type": "address"
        },
        {
          "internalType": "address",
          "name": "verifierAddress",
          "type": "address"
        }
      ],
      "stateMutability": "nonpayable",
      "type": "constructor"
    },
    {
      "anonymous": false,
      "inputs": [
        {
          "indexed": false,
          "internalType": "address",
          "name": "newAdmin",
          "type": "address"
        }
      ],
      "name": "GroupAdminChanged",
      "type": "event"
    },
    {
      "anonymous": false,
      "inputs": [
        {
          "indexed": false,
          "internalType": "uint256",
          "name": "groupId",
          "type": "uint256"
        },
        {
          "indexed": false,
          "internalType": "uint256",
          "name": "depth",
          "type": "uint256"
        }
      ],
      "name": "GroupCreated",
      "type": "event"
    },
    {
      "anonymous": false,
      "inputs": [
        {
          "indexed": true,
          "internalType": "address",
          "name": "previousOwner",
          "type": "address"
        },
        {
          "indexed": true,
          "internalType": "address",
          "name": "newOwner",
          "type": "address"
        }
      ],
      "name": "OwnershipTransferred",
      "type": "event"
    },
    {
      "anonymous": false,
      "inputs": [
        {
          "indexed": false,
          "internalType": "uint256",
          "name": "pollId",
          "type": "uint256"
        },
        {
          "indexed": false,
          "internalType": "string",
          "name": "text",
          "type": "string"
        }
      ],
      "name": "PollCreated",
      "type": "event"
    },
    {
      "anonymous": false,
      "inputs": [
        {
          "indexed": false,
          "internalType": "string",
          "name": "ipfsLink",
          "type": "string"
        },
        {
          "indexed": false,
          "internalType": "uint256",
          "name": "questionsCount",
          "type": "uint256"
        },
        {
          "indexed": false,
          "internalType": "uint256",
          "name": "optionsPerQuestion",
          "type": "uint256"
        }
      ],
      "name": "SurveyCreated",
      "type": "event"
    },
    {
      "anonymous": false,
      "inputs": [
        {
          "indexed": false,
          "internalType": "uint256",
          "name": "surveyID",
          "type": "uint256"
        },
        {
          "indexed": false,
          "internalType": "uint256",
          "name": "encodedResponses",
          "type": "uint256"
        }
      ],
      "name": "SurveyResponseSubmitted",
      "type": "event"
    },
    {
      "anonymous": false,
      "inputs": [
        {
          "indexed": false,
          "internalType": "address",
          "name": "newAdmin",
          "type": "address"
        }
      ],
      "name": "VoteAdminChanged",
      "type": "event"
    },
    {
      "anonymous": false,
      "inputs": [
        {
          "indexed": false,
          "internalType": "uint256",
          "name": "pollId",
          "type": "uint256"
        },
        {
          "indexed": false,
          "internalType": "uint256",
          "name": "vote",
          "type": "uint256"
        }
      ],
      "name": "VoteCasted",
      "type": "event"
    },
    {
      "inputs": [
        {
          "internalType": "uint256",
          "name": "groupId",
          "type": "uint256"
        },
        {
          "internalType": "uint256",
          "name": "identityCommitment",
          "type": "uint256"
        }
      ],
      "name": "addMember",
      "outputs": [],
      "stateMutability": "nonpayable",
      "type": "function"
    },
    {
      "inputs": [
        {
          "internalType": "uint8",
          "name": "vote",
          "type": "uint8"
        },
        {
          "internalType": "uint256",
          "name": "merkleTreeRoot",
          "type": "uint256"
        },
        {
          "internalType": "uint256",
          "name": "nullifierHash",
          "type": "uint256"
        },
        {
          "internalType": "uint256",
          "name": "pollId",
          "type": "uint256"
        },
        {
          "internalType": "uint256[8]",
          "name": "proof",
          "type": "uint256[8]"
        },
        {
          "internalType": "uint256",
          "name": "groupId",
          "type": "uint256"
        }
      ],
      "name": "castVote",
      "outputs": [],
      "stateMutability": "nonpayable",
      "type": "function"
    },
    {
      "inputs": [
        {
          "internalType": "address",
          "name": "newAdmin",
          "type": "address"
        }
      ],
      "name": "changeGroupAdmin",
      "outputs": [],
      "stateMutability": "nonpayable",
      "type": "function"
    },
    {
      "inputs": [
        {
          "internalType": "address",
          "name": "newAdmin",
          "type": "address"
        }
      ],
      "name": "changeVoteAdmin",
      "outputs": [],
      "stateMutability": "nonpayable",
      "type": "function"
    },
    {
      "inputs": [
        {
          "internalType": "uint256",
          "name": "groupId",
          "type": "uint256"
        },
        {
          "internalType": "uint256",
          "name": "depth",
          "type": "uint256"
        }
      ],
      "name": "createGroup",
      "outputs": [],
      "stateMutability": "nonpayable",
      "type": "function"
    },
    {
      "inputs": [
        {
          "internalType": "uint256",
          "name": "pollId",
          "type": "uint256"
        },
        {
          "internalType": "string",
          "name": "_text",
          "type": "string"
        },
        {
          "internalType": "uint256[]",
          "name": "groupIds",
          "type": "uint256[]"
        }
      ],
      "name": "createPoll",
      "outputs": [],
      "stateMutability": "nonpayable",
      "type": "function"
    },
    {
      "inputs": [
        {
          "internalType": "string",
          "name": "ipfsLink",
          "type": "string"
        },
        {
          "internalType": "uint256",
          "name": "questionsCount",
          "type": "uint256"
        },
        {
          "internalType": "uint256",
          "name": "optionsPerQuestion",
          "type": "uint256"
        },
        {
          "internalType": "uint256[]",
          "name": "groupIds",
          "type": "uint256[]"
        }
      ],
      "name": "createSurvey",
      "outputs": [],
      "stateMutability": "nonpayable",
      "type": "function"
    },
    {
      "inputs": [
        {
          "internalType": "uint256",
          "name": "surveyId",
          "type": "uint256"
        }
      ],
      "name": "getSurvey",
      "outputs": [
        {
          "internalType": "string",
          "name": "ipfsLink",
          "type": "string"
        },
        {
          "internalType": "uint256",
          "name": "questionsCount",
          "type": "uint256"
        },
        {
          "internalType": "uint256",
          "name": "optionsPerQuestion",
          "type": "uint256"
        },
        {
          "internalType": "uint256[][]",
          "name": "results",
          "type": "uint256[][]"
        }
      ],
      "stateMutability": "view",
      "type": "function"
    },
    {
      "inputs": [
        {
          "internalType": "uint256",
          "name": "pollId",
          "type": "uint256"
        }
      ],
      "name": "getVotes",
      "outputs": [
        {
          "internalType": "uint32[]",
          "name": "",
          "type": "uint32[]"
        }
      ],
      "stateMutability": "view",
      "type": "function"
    },
    {
      "inputs": [],
      "name": "groupAdmin",
      "outputs": [
        {
          "internalType": "address",
          "name": "",
          "type": "address"
        }
      ],
      "stateMutability": "view",
      "type": "function"
    },
    {
      "inputs": [
        {
          "internalType": "uint256",
          "name": "",
          "type": "uint256"
        }
      ],
      "name": "groups",
      "outputs": [
        {
          "internalType": "bool",
          "name": "isActive",
          "type": "bool"
        },
        {
          "internalType": "uint256",
          "name": "depth",
          "type": "uint256"
        }
      ],
      "stateMutability": "view",
      "type": "function"
    },
    {
      "inputs": [
        {
          "internalType": "uint256",
          "name": "pollId",
          "type": "uint256"
        },
        {
          "internalType": "uint256",
          "name": "groupId",
          "type": "uint256"
        }
      ],
      "name": "isGroupAllowed",
      "outputs": [
        {
          "internalType": "bool",
          "name": "",
          "type": "bool"
        }
      ],
      "stateMutability": "view",
      "type": "function"
    },
    {
      "inputs": [
        {
          "internalType": "uint256",
          "name": "pollId",
          "type": "uint256"
        },
        {
          "internalType": "uint256",
          "name": "nullifierHash",
          "type": "uint256"
        }
      ],
      "name": "isNullifierUsed",
      "outputs": [
        {
          "internalType": "bool",
          "name": "",
          "type": "bool"
        }
      ],
      "stateMutability": "view",
      "type": "function"
    },
    {
      "inputs": [],
      "name": "nextSurveyId",
      "outputs": [
        {
          "internalType": "uint256",
          "name": "",
          "type": "uint256"
        }
      ],
      "stateMutability": "view",
      "type": "function"
    },
    {
      "inputs": [],
      "name": "owner",
      "outputs": [
        {
          "internalType": "address",
          "name": "",
          "type": "address"
        }
      ],
      "stateMutability": "view",
      "type": "function"
    },
    {
      "inputs": [
        {
          "internalType": "uint256",
          "name": "",
          "type": "uint256"
        }
      ],
      "name": "polls",
      "outputs": [
        {
          "internalType": "enum OpinionXpress.PollState",
          "name": "state",
          "type": "uint8"
        },
        {
          "internalType": "uint32",
          "name": "yesCounter",
          "type": "uint32"
        },
        {
          "internalType": "uint32",
          "name": "noCounter",
          "type": "uint32"
        },
        {
          "internalType": "string",
          "name": "text",
          "type": "string"
        }
      ],
      "stateMutability": "view",
      "type": "function"
    },
    {
      "inputs": [],
      "name": "renounceOwnership",
      "outputs": [],
      "stateMutability": "nonpayable",
      "type": "function"
    },
    {
      "inputs": [],
      "name": "semaphore",
      "outputs": [
        {
          "internalType": "contract ISemaphore",
          "name": "",
          "type": "address"
        }
      ],
      "stateMutability": "view",
      "type": "function"
    },
    {
      "inputs": [
        {
          "internalType": "uint256",
          "name": "surveyId",
          "type": "uint256"
        },
        {
          "internalType": "uint256",
          "name": "encodedResponses",
          "type": "uint256"
        },
        {
          "internalType": "uint256",
          "name": "merkleTreeRoot",
          "type": "uint256"
        },
        {
          "internalType": "uint256",
          "name": "nullifierHash",
          "type": "uint256"
        },
        {
          "internalType": "uint256[8]",
          "name": "proof",
          "type": "uint256[8]"
        },
        {
          "internalType": "uint256",
          "name": "groupId",
          "type": "uint256"
        }
      ],
      "name": "submitSurveyResponse",
      "outputs": [],
      "stateMutability": "nonpayable",
      "type": "function"
    },
    {
      "inputs": [
        {
          "internalType": "uint256",
          "name": "",
          "type": "uint256"
        }
      ],
      "name": "surveys",
      "outputs": [
        {
          "internalType": "string",
          "name": "ipfsLink",
          "type": "string"
        },
        {
          "internalType": "uint256",
          "name": "questionsCount",
          "type": "uint256"
        },
        {
          "internalType": "uint256",
          "name": "optionsPerQuestion",
          "type": "uint256"
        }
      ],
      "stateMutability": "view",
      "type": "function"
    },
    {
      "inputs": [
        {
          "internalType": "address",
          "name": "newOwner",
          "type": "address"
        }
      ],
      "name": "transferOwnership",
      "outputs": [],
      "stateMutability": "nonpayable",
      "type": "function"
    },
    {
      "inputs": [
        {
          "internalType": "uint256",
          "name": "groupId",
          "type": "uint256"
        },
        {
          "internalType": "uint256",
          "name": "identityCommitment",
          "type": "uint256"
        },
        {
          "internalType": "uint256",
          "name": "newIdentityCommitment",
          "type": "uint256"
        },
        {
          "internalType": "uint256[]",
          "name": "proofSiblings",
          "type": "uint256[]"
        },
        {
          "internalType": "uint8[]",
          "name": "proofPathIndices",
          "type": "uint8[]"
        }
      ],
      "name": "updateMember",
      "outputs": [],
      "stateMutability": "nonpayable",
      "type": "function"
    },
    {
      "inputs": [],
      "name": "verifier",
      "outputs": [
        {
          "internalType": "contract ISemaphoreVerifier",
          "name": "",
          "type": "address"
        }
      ],
      "stateMutability": "view",
      "type": "function"
    },
    {
      "inputs": [],
      "name": "voteAdmin",
      "outputs": [
        {
          "internalType": "address",
          "name": "",
          "type": "address"
        }
      ],
      "stateMutability": "view",
      "type": "function"
    }
  ],
  "bytecode": "0x60806040523480156200001157600080fd5b506040516200389138038062003891833981810160405281019062000037919062000246565b620000576200004b6200016360201b60201c565b6200016b60201b60201c565b81600360006101000a81548173ffffffffffffffffffffffffffffffffffffffff021916908373ffffffffffffffffffffffffffffffffffffffff16021790555080600460006101000a81548173ffffffffffffffffffffffffffffffffffffffff021916908373ffffffffffffffffffffffffffffffffffffffff16021790555033600760006101000a81548173ffffffffffffffffffffffffffffffffffffffff021916908373ffffffffffffffffffffffffffffffffffffffff16021790555033600860006101000a81548173ffffffffffffffffffffffffffffffffffffffff021916908373ffffffffffffffffffffffffffffffffffffffff1602179055505050620002d5565b600033905090565b60008060009054906101000a900473ffffffffffffffffffffffffffffffffffffffff169050816000806101000a81548173ffffffffffffffffffffffffffffffffffffffff021916908373ffffffffffffffffffffffffffffffffffffffff1602179055508173ffffffffffffffffffffffffffffffffffffffff168173ffffffffffffffffffffffffffffffffffffffff167f8be0079c531659141344cd1fd0a4f28419497f9722a3daafe3b4186f6b6457e060405160405180910390a35050565b6000815190506200024081620002bb565b92915050565b600080604083850312156200025a57600080fd5b60006200026a858286016200022f565b92505060206200027d858286016200022f565b9150509250929050565b600062000294826200029b565b9050919050565b600073ffffffffffffffffffffffffffffffffffffffff82169050919050565b620002c68162000287565b8114620002d257600080fd5b50565b6135ac80620002e56000396000f3fe608060405234801561001057600080fd5b50600436106101585760003560e01c806389670e15116100c3578063ac2f00741161007c578063ac2f0074146103a3578063cff760f4146103d6578063ebc86207146103f4578063ec45622a14610424578063f2fde38b14610440578063ff9810991461045c57610158565b806389670e15146102cd5780638ca1b18f146103005780638da5cb5b1461031c57806396324bd41461033a578063980cb3ac1461036b5780639f7a81f01461038757610158565b806360f52cbc1161011557806360f52cbc1461020b578063715018a6146102275780637b5d25341461023157806385c742961461024f57806386e68b901461027f578063882fc557146102b157610158565b80631783efc31461015d5780632b7ac3f3146101795780632d2c6332146101975780633a04eefa146101b557806340e39531146101d15780635e2119de146101ef575b600080fd5b6101776004803603810190610172919061214b565b61048c565b005b610181610612565b60405161018e9190612925565b60405180910390f35b61019f610638565b6040516101ac91906128a4565b60405180910390f35b6101cf60048036038101906101ca91906120c2565b61065e565b005b6101d9610903565b6040516101e691906128a4565b60405180910390f35b610209600480360381019061020491906122c2565b610929565b005b61022560048036038101906102209190612001565b610bf0565b005b61022f610c0c565b005b610239610c20565b6040516102469190612940565b60405180910390f35b6102696004803603810190610264919061214b565b610c46565b60405161027691906128e1565b60405180910390f35b61029960048036038101906102949190612099565b610c85565b6040516102a8939291906129a7565b60405180910390f35b6102cb60048036038101906102c69190611fd8565b610d37565b005b6102e760048036038101906102e29190612099565b610dba565b6040516102f794939291906129e5565b60405180910390f35b61031a60048036038101906103159190611fd8565b6110d4565b005b610324611157565b60405161033191906128a4565b60405180910390f35b610354600480360381019061034f9190612099565b611180565b6040516103629291906128fc565b60405180910390f35b6103856004803603810190610380919061214b565b6111b1565b005b6103a1600480360381019061039c9190612237565b61133a565b005b6103bd60048036038101906103b89190612099565b6113f8565b6040516103cd949392919061295b565b60405180910390f35b6103de6114dd565b6040516103eb9190612bf8565b60405180910390f35b61040e6004803603810190610409919061214b565b6114e3565b60405161041b91906128e1565b60405180910390f35b61043e60048036038101906104399190612187565b611522565b005b61045a60048036038101906104559190611fd8565b611654565b005b61047660048036038101906104719190612099565b6116d8565b60405161048391906128bf565b60405180910390f35b600760009054906101000a900473ffffffffffffffffffffffffffffffffffffffff1673ffffffffffffffffffffffffffffffffffffffff163373ffffffffffffffffffffffffffffffffffffffff161461051c576040517f08c379a000000000000000000000000000000000000000000000000000000000815260040161051390612af8565b60405180910390fd5b6006600083815260200190815260200160002060000160009054906101000a900460ff1661057f576040517f08c379a000000000000000000000000000000000000000000000000000000000815260040161057690612a58565b60405180910390fd5b600360009054906101000a900473ffffffffffffffffffffffffffffffffffffffff1673ffffffffffffffffffffffffffffffffffffffff16631783efc383836040518363ffffffff1660e01b81526004016105dc929190612c45565b600060405180830381600087803b1580156105f657600080fd5b505af115801561060a573d6000803e3d6000fd5b505050505050565b600460009054906101000a900473ffffffffffffffffffffffffffffffffffffffff1681565b600860009054906101000a900473ffffffffffffffffffffffffffffffffffffffff1681565b61066661184d565b600084849050116106ac576040517f08c379a00000000000000000000000000000000000000000000000000000000081526004016106a390612a78565b60405180910390fd5b600060056000878152602001908152602001600020905060006005600088815260200190815260200160002060010180546106e690613140565b905014610728576040517f08c379a000000000000000000000000000000000000000000000000000000000815260040161071f90612ad8565b60405180910390fd5b60008160000160006101000a81548160ff02191690836002811115610776577f4e487b7100000000000000000000000000000000000000000000000000000000600052602160045260246000fd5b0217905550848482600101919061078e929190611d0c565b5060005b838390508110156108bf57600660008585848181106107da577f4e487b7100000000000000000000000000000000000000000000000000000000600052603260045260246000fd5b90506020020135815260200190815260200160002060000160009054906101000a900460ff1661083f576040517f08c379a000000000000000000000000000000000000000000000000000000000815260040161083690612b18565b60405180910390fd5b6001826003016000868685818110610880577f4e487b7100000000000000000000000000000000000000000000000000000000600052603260045260246000fd5b90506020020135815260200190815260200160002060006101000a81548160ff02191690831515021790555080806108b7906131a3565b915050610792565b507f65d5ac2bf1bca69566bef1affdfca5bb37b9577fc0b3af4c7c4638225e67b39c8686866040516108f393929190612c13565b60405180910390a1505050505050565b600760009054906101000a900473ffffffffffffffffffffffffffffffffffffffff1681565b60028660ff161061096f576040517f08c379a000000000000000000000000000000000000000000000000000000000815260040161096690612bb8565b60405180910390fd5b61097983826114e3565b6109b8576040517f08c379a00000000000000000000000000000000000000000000000000000000081526004016109af90612ab8565b60405180910390fd5b6109c28385610c46565b15610a02576040517f08c379a00000000000000000000000000000000000000000000000000000000081526004016109f990612a38565b60405180910390fd5b600460009054906101000a900473ffffffffffffffffffffffffffffffffffffffff1673ffffffffffffffffffffffffffffffffffffffff16639aca8f2a868689878760066000898152602001908152602001600020600101546040518763ffffffff1660e01b8152600401610a7d96959493929190612d7b565b60006040518083038186803b158015610a9557600080fd5b505afa158015610aa9573d6000803e3d6000fd5b50505050600160056000858152602001908152602001600020600201600086815260200190815260200160002060006101000a81548160ff02191690831515021790555060008660ff161415610b4e5760016005600085815260200190815260200160002060000160058282829054906101000a900463ffffffff16610b2f9190612f74565b92506101000a81548163ffffffff021916908363ffffffff1602179055505b60018660ff161415610baf5760016005600085815260200190815260200160002060000160018282829054906101000a900463ffffffff16610b909190612f74565b92506101000a81548163ffffffff021916908363ffffffff1602179055505b7f5d4760119c8e8650149aac097d38c70515dfce015031561ad115606533e479be8387604051610be0929190612dde565b60405180910390a1505050505050565b610bf861184d565b610c0585858585856118cb565b5050505050565b610c1461184d565b610c1e6000611a2e565b565b600360009054906101000a900473ffffffffffffffffffffffffffffffffffffffff1681565b600060056000848152602001908152602001600020600201600083815260200190815260200160002060009054906101000a900460ff16905092915050565b6001602052806000526040600020600091509050806000018054610ca890613140565b80601f0160208091040260200160405190810160405280929190818152602001828054610cd490613140565b8015610d215780601f10610cf657610100808354040283529160200191610d21565b820191906000526020600020905b815481529060010190602001808311610d0457829003601f168201915b5050505050908060010154908060020154905083565b610d3f61184d565b80600760006101000a81548173ffffffffffffffffffffffffffffffffffffffff021916908373ffffffffffffffffffffffffffffffffffffffff1602179055507f6a0a25cdd72eecb90c6b5b7eb1d4522dcd45bf68b28d80e61f123ee5cd3995da81604051610daf91906128a4565b60405180910390a150565b606060008060606002548510610e05576040517f08c379a0000000000000000000000000000000000000000000000000000000008152600401610dfc90612b98565b60405180910390fd5b6000600160008781526020019081526020016000209050806000018054610e2b90613140565b80601f0160208091040260200160405190810160405280929190818152602001828054610e5790613140565b8015610ea45780601f10610e7957610100808354040283529160200191610ea4565b820191906000526020600020905b815481529060010190602001808311610e8757829003601f168201915b5050505050945080600101549350806002015492508367ffffffffffffffff811115610ef9577f4e487b7100000000000000000000000000000000000000000000000000000000600052604160045260246000fd5b604051908082528060200260200182016040528015610f2c57816020015b6060815260200190600190039081610f175790505b50915060005b848110156110cb578367ffffffffffffffff811115610f7a577f4e487b7100000000000000000000000000000000000000000000000000000000600052604160045260246000fd5b604051908082528060200260200182016040528015610fa85781602001602082028036833780820191505090505b50838281518110610fe2577f4e487b7100000000000000000000000000000000000000000000000000000000600052603260045260246000fd5b602002602001018190525060005b848110156110b757826005016000838152602001908152602001600020600082815260200190815260200160002054848381518110611058577f4e487b7100000000000000000000000000000000000000000000000000000000600052603260045260246000fd5b60200260200101518281518110611098577f4e487b7100000000000000000000000000000000000000000000000000000000600052603260045260246000fd5b60200260200101818152505080806110af906131a3565b915050610ff0565b5080806110c3906131a3565b915050610f32565b50509193509193565b6110dc61184d565b80600860006101000a81548173ffffffffffffffffffffffffffffffffffffffff021916908373ffffffffffffffffffffffffffffffffffffffff1602179055507fb768bf1496eb252752668611d1b0c2e024539e90ad36ea0f46178c840af2d1378160405161114c91906128a4565b60405180910390a150565b60008060009054906101000a900473ffffffffffffffffffffffffffffffffffffffff16905090565b60066020528060005260406000206000915090508060000160009054906101000a900460ff16908060010154905082565b6111b961184d565b6006600083815260200190815260200160002060000160009054906101000a900460ff161561121d576040517f08c379a000000000000000000000000000000000000000000000000000000000815260040161121490612b38565b60405180910390fd5b60016006600084815260200190815260200160002060000160006101000a81548160ff021916908315150217905550806006600084815260200190815260200160002060010181905550600360009054906101000a900473ffffffffffffffffffffffffffffffffffffffff1673ffffffffffffffffffffffffffffffffffffffff166365e54f8383833062a61d0a6040518563ffffffff1660e01b81526004016112cb9493929190612c6e565b600060405180830381600087803b1580156112e557600080fd5b505af11580156112f9573d6000803e3d6000fd5b505050507f45c2f3d170bd0d6d1e4ac999b02ef5349552b6a99826397251a84fc1a49a9e58828260405161132e929190612c45565b60405180910390a15050565b600460009054906101000a900473ffffffffffffffffffffffffffffffffffffffff1673ffffffffffffffffffffffffffffffffffffffff16639aca8f2a8585888a8760066000898152602001908152602001600020600101546040518763ffffffff1660e01b81526004016113b596959493929190612d18565b60006040518083038186803b1580156113cd57600080fd5b505afa1580156113e1573d6000803e3d6000fd5b505050506113f0868685611af2565b505050505050565b60056020528060005260406000206000915090508060000160009054906101000a900460ff16908060000160019054906101000a900463ffffffff16908060000160059054906101000a900463ffffffff169080600101805461145a90613140565b80601f016020809104026020016040519081016040528092919081815260200182805461148690613140565b80156114d35780601f106114a8576101008083540402835291602001916114d3565b820191906000526020600020905b8154815290600101906020018083116114b657829003601f168201915b5050505050905084565b60025481565b600060056000848152602001908152602001600020600301600083815260200190815260200160002060009054906101000a900460ff16905092915050565b600760009054906101000a900473ffffffffffffffffffffffffffffffffffffffff1673ffffffffffffffffffffffffffffffffffffffff163373ffffffffffffffffffffffffffffffffffffffff16146115b2576040517f08c379a00000000000000000000000000000000000000000000000000000000081526004016115a990612af8565b60405180910390fd5b600360009054906101000a900473ffffffffffffffffffffffffffffffffffffffff1673ffffffffffffffffffffffffffffffffffffffff1663ec45622a888888888888886040518863ffffffff1660e01b81526004016116199796959493929190612cb3565b600060405180830381600087803b15801561163357600080fd5b505af1158015611647573d6000803e3d6000fd5b5050505050505050505050565b61165c61184d565b600073ffffffffffffffffffffffffffffffffffffffff168173ffffffffffffffffffffffffffffffffffffffff1614156116cc576040517f08c379a00000000000000000000000000000000000000000000000000000000081526004016116c390612a98565b60405180910390fd5b6116d581611a2e565b50565b60606000600267ffffffffffffffff81111561171d577f4e487b7100000000000000000000000000000000000000000000000000000000600052604160045260246000fd5b60405190808252806020026020018201604052801561174b5781602001602082028036833780820191505090505b5090506005600084815260200190815260200160002060000160019054906101000a900463ffffffff16816000815181106117af577f4e487b7100000000000000000000000000000000000000000000000000000000600052603260045260246000fd5b602002602001019063ffffffff16908163ffffffff16815250506005600084815260200190815260200160002060000160059054906101000a900463ffffffff168160018151811061182a577f4e487b7100000000000000000000000000000000000000000000000000000000600052603260045260246000fd5b602002602001019063ffffffff16908163ffffffff168152505080915050919050565b611855611d04565b73ffffffffffffffffffffffffffffffffffffffff16611873611157565b73ffffffffffffffffffffffffffffffffffffffff16146118c9576040517f08c379a00000000000000000000000000000000000000000000000000000000081526004016118c090612b58565b60405180910390fd5b565b8460016000600254815260200190815260200160002060000190805190602001906118f7929190611d92565b508360016000600254815260200190815260200160002060010181905550826001600060025481526020019081526020016000206002018190555060026000815480929190611945906131a3565b919050555060005b828290508110156119eb576001806000600254815260200190815260200160002060030160008585858181106119ac577f4e487b7100000000000000000000000000000000000000000000000000000000600052603260045260246000fd5b90506020020135815260200190815260200160002060006101000a81548160ff02191690831515021790555080806119e3906131a3565b91505061194d565b507ff27aa9c0eae85e0ab88830d4166ef9308074ad270654bce24bf1a67b7f47d4f1858585604051611a1f939291906129a7565b60405180910390a15050505050565b60008060009054906101000a900473ffffffffffffffffffffffffffffffffffffffff169050816000806101000a81548173ffffffffffffffffffffffffffffffffffffffff021916908373ffffffffffffffffffffffffffffffffffffffff1602179055508173ffffffffffffffffffffffffffffffffffffffff168173ffffffffffffffffffffffffffffffffffffffff167f8be0079c531659141344cd1fd0a4f28419497f9722a3daafe3b4186f6b6457e060405160405180910390a35050565b6002548310611b36576040517f08c379a0000000000000000000000000000000000000000000000000000000008152600401611b2d90612b98565b60405180910390fd5b6001151560016000858152602001908152602001600020600401600083815260200190815260200160002060009054906101000a900460ff1615151415611bb2576040517f08c379a0000000000000000000000000000000000000000000000000000000008152600401611ba990612bd8565b60405180910390fd5b600060016000858152602001908152602001600020905060005b8160010154811015611c855760006003826002611be99190612fae565b86901c16905082600201548110611c35576040517f08c379a0000000000000000000000000000000000000000000000000000000008152600401611c2c90612b78565b60405180910390fd5b82600501600083815260200190815260200160002060008281526020019081526020016000206000815480929190611c6c906131a3565b9190505550508080611c7d906131a3565b915050611bcc565b506001806000868152602001908152602001600020600401600084815260200190815260200160002060006101000a81548160ff0219169083151502179055507f8ed5309e867deb14d0cce67c0f0f542d0c1ffa8e5c903c92252f5b60ee57b8248484604051611cf6929190612c45565b60405180910390a150505050565b600033905090565b828054611d1890613140565b90600052602060002090601f016020900481019282611d3a5760008555611d81565b82601f10611d5357803560ff1916838001178555611d81565b82800160010185558215611d81579182015b82811115611d80578235825591602001919060010190611d65565b5b509050611d8e9190611e18565b5090565b828054611d9e90613140565b90600052602060002090601f016020900481019282611dc05760008555611e07565b82601f10611dd957805160ff1916838001178555611e07565b82800160010185558215611e07579182015b82811115611e06578251825591602001919060010190611deb565b5b509050611e149190611e18565b5090565b5b80821115611e31576000816000905550600101611e19565b5090565b6000611e48611e4384612e2c565b612e07565b905082815260208101848484011115611e6057600080fd5b611e6b8482856130fe565b509392505050565b600081359050611e8281613531565b92915050565b600081905082602060080282011115611ea057600080fd5b92915050565b60008083601f840112611eb857600080fd5b8235905067ffffffffffffffff811115611ed157600080fd5b602083019150836020820283011115611ee957600080fd5b9250929050565b60008083601f840112611f0257600080fd5b8235905067ffffffffffffffff811115611f1b57600080fd5b602083019150836020820283011115611f3357600080fd5b9250929050565b60008083601f840112611f4c57600080fd5b8235905067ffffffffffffffff811115611f6557600080fd5b602083019150836001820283011115611f7d57600080fd5b9250929050565b600082601f830112611f9557600080fd5b8135611fa5848260208601611e35565b91505092915050565b600081359050611fbd81613548565b92915050565b600081359050611fd28161355f565b92915050565b600060208284031215611fea57600080fd5b6000611ff884828501611e73565b91505092915050565b60008060008060006080868803121561201957600080fd5b600086013567ffffffffffffffff81111561203357600080fd5b61203f88828901611f84565b955050602061205088828901611fae565b945050604061206188828901611fae565b935050606086013567ffffffffffffffff81111561207e57600080fd5b61208a88828901611ea6565b92509250509295509295909350565b6000602082840312156120ab57600080fd5b60006120b984828501611fae565b91505092915050565b6000806000806000606086880312156120da57600080fd5b60006120e888828901611fae565b955050602086013567ffffffffffffffff81111561210557600080fd5b61211188828901611f3a565b9450945050604086013567ffffffffffffffff81111561213057600080fd5b61213c88828901611ea6565b92509250509295509295909350565b6000806040838503121561215e57600080fd5b600061216c85828601611fae565b925050602061217d85828601611fae565b9150509250929050565b600080600080600080600060a0888a0312156121a257600080fd5b60006121b08a828b01611fae565b97505060206121c18a828b01611fae565b96505060406121d28a828b01611fae565b955050606088013567ffffffffffffffff8111156121ef57600080fd5b6121fb8a828b01611ea6565b9450945050608088013567ffffffffffffffff81111561221a57600080fd5b6122268a828b01611ef0565b925092505092959891949750929550565b6000806000806000806101a0878903121561225157600080fd5b600061225f89828a01611fae565b965050602061227089828a01611fae565b955050604061228189828a01611fae565b945050606061229289828a01611fae565b93505060806122a389828a01611e88565b9250506101806122b589828a01611fae565b9150509295509295509295565b6000806000806000806101a087890312156122dc57600080fd5b60006122ea89828a01611fc3565b96505060206122fb89828a01611fae565b955050604061230c89828a01611fae565b945050606061231d89828a01611fae565b935050608061232e89828a01611e88565b92505061018061234089828a01611fae565b9150509295509295509295565b60006123598383612496565b905092915050565b600061236d838361284a565b60208301905092915050565b60006123858383612868565b60208301905092915050565b600061239d8383612895565b60208301905092915050565b6123b281613008565b82525050565b60006123c382612e97565b6123cd8185612ef7565b9350836020820285016123df85612e5d565b8060005b8581101561241b57848403895281516123fc858261234d565b945061240783612ec3565b925060208a019950506001810190506123e3565b50829750879550505050505092915050565b61243a61010083836130fe565b5050565b600061244a8385612f19565b93507f07ffffffffffffffffffffffffffffffffffffffffffffffffffffffffffffff83111561247957600080fd5b60208302925061248a8385846130fe565b82840190509392505050565b60006124a182612ea2565b6124ab8185612f08565b93506124b683612e6d565b8060005b838110156124e75781516124ce8882612361565b97506124d983612ed0565b9250506001810190506124ba565b5085935050505092915050565b60006124ff82612ead565b6125098185612f2a565b935061251483612e7d565b8060005b8381101561254557815161252c8882612379565b975061253783612edd565b925050600181019050612518565b5085935050505092915050565b600061255e8385612f3b565b935061256982612e8d565b8060005b858110156125a25761257f8284612f5d565b6125898882612391565b975061259483612eea565b92505060018101905061256d565b5085925050509392505050565b6125b88161301a565b82525050565b6125c781613080565b82525050565b6125d6816130a4565b82525050565b6125e5816130c8565b82525050565b6125f4816130da565b82525050565b60006126068385612f4c565b93506126138385846130fe565b61261c836132a8565b840190509392505050565b600061263282612eb8565b61263c8185612f4c565b935061264c81856020860161310d565b612655816132a8565b840191505092915050565b600061266d600e83612f4c565b9150612678826132b9565b602082019050919050565b6000612690601383612f4c565b915061269b826132e2565b602082019050919050565b60006126b3601983612f4c565b91506126be8261330b565b602082019050919050565b60006126d6602683612f4c565b91506126e182613334565b604082019050919050565b60006126f9601183612f4c565b915061270482613383565b602082019050919050565b600061271c601383612f4c565b9150612727826133ac565b602082019050919050565b600061273f600f83612f4c565b915061274a826133d5565b602082019050919050565b6000612762601483612f4c565b915061276d826133fe565b602082019050919050565b6000612785601483612f4c565b915061279082613427565b602082019050919050565b60006127a8602083612f4c565b91506127b382613450565b602082019050919050565b60006127cb601083612f4c565b91506127d682613479565b602082019050919050565b60006127ee601183612f4c565b91506127f9826134a2565b602082019050919050565b6000612811600883612f4c565b915061281c826134cb565b602082019050919050565b6000612834601183612f4c565b915061283f826134f4565b602082019050919050565b61285381613059565b82525050565b61286281613059565b82525050565b61287181613063565b82525050565b61288081613063565b82525050565b61288f816130ec565b82525050565b61289e81613073565b82525050565b60006020820190506128b960008301846123a9565b92915050565b600060208201905081810360008301526128d981846124f4565b905092915050565b60006020820190506128f660008301846125af565b92915050565b600060408201905061291160008301856125af565b61291e6020830184612859565b9392505050565b600060208201905061293a60008301846125be565b92915050565b600060208201905061295560008301846125cd565b92915050565b600060808201905061297060008301876125dc565b61297d6020830186612877565b61298a6040830185612877565b818103606083015261299c8184612627565b905095945050505050565b600060608201905081810360008301526129c18186612627565b90506129d06020830185612859565b6129dd6040830184612859565b949350505050565b600060808201905081810360008301526129ff8187612627565b9050612a0e6020830186612859565b612a1b6040830185612859565b8181036060830152612a2d81846123b8565b905095945050505050565b60006020820190508181036000830152612a5181612660565b9050919050565b60006020820190508181036000830152612a7181612683565b9050919050565b60006020820190508181036000830152612a91816126a6565b9050919050565b60006020820190508181036000830152612ab1816126c9565b9050919050565b60006020820190508181036000830152612ad1816126ec565b9050919050565b60006020820190508181036000830152612af18161270f565b9050919050565b60006020820190508181036000830152612b1181612732565b9050919050565b60006020820190508181036000830152612b3181612755565b9050919050565b60006020820190508181036000830152612b5181612778565b9050919050565b60006020820190508181036000830152612b718161279b565b9050919050565b60006020820190508181036000830152612b91816127be565b9050919050565b60006020820190508181036000830152612bb1816127e1565b9050919050565b60006020820190508181036000830152612bd181612804565b9050919050565b60006020820190508181036000830152612bf181612827565b9050919050565b6000602082019050612c0d6000830184612859565b92915050565b6000604082019050612c286000830186612859565b8181036020830152612c3b8184866125fa565b9050949350505050565b6000604082019050612c5a6000830185612859565b612c676020830184612859565b9392505050565b6000608082019050612c836000830187612859565b612c906020830186612859565b612c9d60408301856123a9565b612caa60608301846125eb565b95945050505050565b600060a082019050612cc8600083018a612859565b612cd56020830189612859565b612ce26040830188612859565b8181036060830152612cf581868861243e565b90508181036080830152612d0a818486612552565b905098975050505050505050565b60006101a082019050612d2e6000830189612859565b612d3b6020830188612859565b612d486040830187612859565b612d556060830186612859565b612d62608083018561242d565b612d70610180830184612859565b979650505050505050565b60006101a082019050612d916000830189612859565b612d9e6020830188612859565b612dab6040830187612886565b612db86060830186612859565b612dc5608083018561242d565b612dd3610180830184612859565b979650505050505050565b6000604082019050612df36000830185612859565b612e006020830184612886565b9392505050565b6000612e11612e22565b9050612e1d8282613172565b919050565b6000604051905090565b600067ffffffffffffffff821115612e4757612e46613279565b5b612e50826132a8565b9050602081019050919050565b6000819050602082019050919050565b6000819050602082019050919050565b6000819050602082019050919050565b6000819050919050565b600081519050919050565b600081519050919050565b600081519050919050565b600081519050919050565b6000602082019050919050565b6000602082019050919050565b6000602082019050919050565b6000602082019050919050565b600082825260208201905092915050565b600082825260208201905092915050565b600082825260208201905092915050565b600082825260208201905092915050565b600082825260208201905092915050565b600082825260208201905092915050565b6000612f6c6020840184611fc3565b905092915050565b6000612f7f82613063565b9150612f8a83613063565b92508263ffffffff03821115612fa357612fa26131ec565b5b828201905092915050565b6000612fb982613059565b9150612fc483613059565b9250817fffffffffffffffffffffffffffffffffffffffffffffffffffffffffffffffff0483118215151615612ffd57612ffc6131ec565b5b828202905092915050565b600061301382613039565b9050919050565b60008115159050919050565b60008190506130348261351d565b919050565b600073ffffffffffffffffffffffffffffffffffffffff82169050919050565b6000819050919050565b600063ffffffff82169050919050565b600060ff82169050919050565b600061308b82613092565b9050919050565b600061309d82613039565b9050919050565b60006130af826130b6565b9050919050565b60006130c182613039565b9050919050565b60006130d382613026565b9050919050565b60006130e582613059565b9050919050565b60006130f782613073565b9050919050565b82818337600083830152505050565b60005b8381101561312b578082015181840152602081019050613110565b8381111561313a576000848401525b50505050565b6000600282049050600182168061315857607f821691505b6020821081141561316c5761316b61324a565b5b50919050565b61317b826132a8565b810181811067ffffffffffffffff8211171561319a57613199613279565b5b80604052505050565b60006131ae82613059565b91507fffffffffffffffffffffffffffffffffffffffffffffffffffffffffffffffff8214156131e1576131e06131ec565b5b600182019050919050565b7f4e487b7100000000000000000000000000000000000000000000000000000000600052601160045260246000fd5b7f4e487b7100000000000000000000000000000000000000000000000000000000600052602160045260246000fd5b7f4e487b7100000000000000000000000000000000000000000000000000000000600052602260045260246000fd5b7f4e487b7100000000000000000000000000000000000000000000000000000000600052604160045260246000fd5b6000601f19601f8301169050919050565b7f55736564204e756c6c6966696572000000000000000000000000000000000000600082015250565b7f47726f7570206973206e6f742061637469766500000000000000000000000000600082015250565b7f506f6c6c20746578742063616e6e6f7420626520656d70747900000000000000600082015250565b7f4f776e61626c653a206e6577206f776e657220697320746865207a65726f206160008201527f6464726573730000000000000000000000000000000000000000000000000000602082015250565b7f47726f7570206e6f7420616c6c6f776564000000000000000000000000000000600082015250565b7f506f6c6c20616c72656164792065786973747300000000000000000000000000600082015250565b7f4e6f742067726f75702061646d696e0000000000000000000000000000000000600082015250565b7f47726f757020646f65736e277420657869737473000000000000000000000000600082015250565b7f47726f757020616c726561647920657869737473000000000000000000000000600082015250565b7f4f776e61626c653a2063616c6c6572206973206e6f7420746865206f776e6572600082015250565b7f496e76616c696420726573706f6e736500000000000000000000000000000000600082015250565b7f496e76616c696420737572766579204944000000000000000000000000000000600082015250565b7f566f7465203e2031000000000000000000000000000000000000000000000000600082015250565b7f416c7265616479205375626d6974746564000000000000000000000000000000600082015250565b6003811061352e5761352d61321b565b5b50565b61353a81613008565b811461354557600080fd5b50565b61355181613059565b811461355c57600080fd5b50565b61356881613073565b811461357357600080fd5b5056fea264697066735822122022f190f156647d4d6d55ed21bd80b43b73c317ea31f6ad352349da92e9246e0264736f6c63430008040033",
  "linkReferences": {},
  "deployedLinkReferences": {}
}